{
  "_format": "hh-sol-artifact-1",
  "contractName": "Comptroller",
  "sourceName": "contracts/Comptroller.sol",
  "abi": [
    {
      "inputs": [
        {
          "internalType": "address",
          "name": "_poolRegistry",
          "type": "address"
        },
        {
          "internalType": "address",
          "name": "_accessControl",
          "type": "address"
        }
      ],
      "stateMutability": "nonpayable",
      "type": "constructor"
    },
    {
      "inputs": [
        {
          "internalType": "uint256",
          "name": "expectedLessThanOrEqualTo",
          "type": "uint256"
        },
        {
          "internalType": "uint256",
          "name": "actual",
          "type": "uint256"
        }
      ],
      "name": "CollateralExceedsThreshold",
      "type": "error"
    },
    {
      "inputs": [
        {
          "internalType": "uint256",
          "name": "collateralToSeize",
          "type": "uint256"
        },
        {
          "internalType": "uint256",
          "name": "availableCollateral",
          "type": "uint256"
        }
      ],
      "name": "InsufficientCollateral",
      "type": "error"
    },
    {
      "inputs": [],
      "name": "InvalidCollateralFactor",
      "type": "error"
    },
    {
      "inputs": [],
      "name": "InvalidLiquidationThreshold",
      "type": "error"
    },
    {
      "inputs": [
        {
          "internalType": "enum ComptrollerErrorReporter.Error",
          "name": "err",
          "type": "uint8"
        }
      ],
      "name": "LiquidityComputationFailure",
      "type": "error"
    },
    {
      "inputs": [
        {
          "internalType": "address",
          "name": "market",
          "type": "address"
        }
      ],
      "name": "MarketNotListed",
      "type": "error"
    },
    {
      "inputs": [
        {
          "internalType": "uint256",
          "name": "expectedGreaterThan",
          "type": "uint256"
        },
        {
          "internalType": "uint256",
          "name": "actual",
          "type": "uint256"
        }
      ],
      "name": "MinimalCollateralViolated",
      "type": "error"
    },
    {
      "inputs": [],
      "name": "OnlyAdminAllowed",
      "type": "error"
    },
    {
      "inputs": [],
      "name": "PriceError",
      "type": "error"
    },
    {
      "inputs": [],
      "name": "SnapshotError",
      "type": "error"
    },
    {
      "inputs": [],
      "name": "Unauthorized",
      "type": "error"
    },
    {
      "anonymous": false,
      "inputs": [
        {
          "indexed": false,
          "internalType": "contract VToken",
          "name": "vToken",
          "type": "address"
        },
        {
          "indexed": false,
          "internalType": "enum ComptrollerV1Storage.Action",
          "name": "action",
          "type": "uint8"
        },
        {
          "indexed": false,
          "internalType": "bool",
          "name": "pauseState",
          "type": "bool"
        }
      ],
      "name": "ActionPausedMarket",
      "type": "event"
    },
    {
      "anonymous": false,
      "inputs": [
        {
          "indexed": false,
          "internalType": "uint256",
          "name": "error",
          "type": "uint256"
        },
        {
          "indexed": false,
          "internalType": "uint256",
          "name": "info",
          "type": "uint256"
        },
        {
          "indexed": false,
          "internalType": "uint256",
          "name": "detail",
          "type": "uint256"
        }
      ],
      "name": "Failure",
      "type": "event"
    },
    {
      "anonymous": false,
      "inputs": [
        {
          "indexed": false,
          "internalType": "uint8",
          "name": "version",
          "type": "uint8"
        }
      ],
      "name": "Initialized",
      "type": "event"
    },
    {
      "anonymous": false,
      "inputs": [
        {
          "indexed": false,
          "internalType": "contract VToken",
          "name": "vToken",
          "type": "address"
        },
        {
          "indexed": false,
          "internalType": "address",
          "name": "account",
          "type": "address"
        }
      ],
      "name": "MarketEntered",
      "type": "event"
    },
    {
      "anonymous": false,
      "inputs": [
        {
          "indexed": false,
          "internalType": "contract VToken",
          "name": "vToken",
          "type": "address"
        },
        {
          "indexed": false,
          "internalType": "address",
          "name": "account",
          "type": "address"
        }
      ],
      "name": "MarketExited",
      "type": "event"
    },
    {
      "anonymous": false,
      "inputs": [
        {
          "indexed": false,
          "internalType": "address",
          "name": "oldAdmin",
          "type": "address"
        },
        {
          "indexed": false,
          "internalType": "address",
          "name": "newAdmin",
          "type": "address"
        }
      ],
      "name": "NewAdmin",
      "type": "event"
    },
    {
      "anonymous": false,
      "inputs": [
        {
          "indexed": true,
          "internalType": "contract VToken",
          "name": "vToken",
          "type": "address"
        },
        {
          "indexed": false,
          "internalType": "uint256",
          "name": "newBorrowCap",
          "type": "uint256"
        }
      ],
      "name": "NewBorrowCap",
      "type": "event"
    },
    {
      "anonymous": false,
      "inputs": [
        {
          "indexed": false,
          "internalType": "address",
          "name": "oldBorrowCapGuardian",
          "type": "address"
        },
        {
          "indexed": false,
          "internalType": "address",
          "name": "newBorrowCapGuardian",
          "type": "address"
        }
      ],
      "name": "NewBorrowCapGuardian",
      "type": "event"
    },
    {
      "anonymous": false,
      "inputs": [
        {
          "indexed": false,
          "internalType": "uint256",
          "name": "oldCloseFactorMantissa",
          "type": "uint256"
        },
        {
          "indexed": false,
          "internalType": "uint256",
          "name": "newCloseFactorMantissa",
          "type": "uint256"
        }
      ],
      "name": "NewCloseFactor",
      "type": "event"
    },
    {
      "anonymous": false,
      "inputs": [
        {
          "indexed": false,
          "internalType": "contract VToken",
          "name": "vToken",
          "type": "address"
        },
        {
          "indexed": false,
          "internalType": "uint256",
          "name": "oldCollateralFactorMantissa",
          "type": "uint256"
        },
        {
          "indexed": false,
          "internalType": "uint256",
          "name": "newCollateralFactorMantissa",
          "type": "uint256"
        }
      ],
      "name": "NewCollateralFactor",
      "type": "event"
    },
    {
      "anonymous": false,
      "inputs": [
        {
          "indexed": false,
          "internalType": "uint256",
          "name": "oldLiquidationIncentiveMantissa",
          "type": "uint256"
        },
        {
          "indexed": false,
          "internalType": "uint256",
          "name": "newLiquidationIncentiveMantissa",
          "type": "uint256"
        }
      ],
      "name": "NewLiquidationIncentive",
      "type": "event"
    },
    {
      "anonymous": false,
      "inputs": [
        {
          "indexed": false,
          "internalType": "contract VToken",
          "name": "vToken",
          "type": "address"
        },
        {
          "indexed": false,
          "internalType": "uint256",
          "name": "oldLiquidationThresholdMantissa",
          "type": "uint256"
        },
        {
          "indexed": false,
          "internalType": "uint256",
          "name": "newLiquidationThresholdMantissa",
          "type": "uint256"
        }
      ],
      "name": "NewLiquidationThreshold",
      "type": "event"
    },
    {
      "anonymous": false,
      "inputs": [
        {
          "indexed": false,
          "internalType": "uint256",
          "name": "oldMinLiquidatableCollateral",
          "type": "uint256"
        },
        {
          "indexed": false,
          "internalType": "uint256",
          "name": "newMinLiquidatableCollateral",
          "type": "uint256"
        }
      ],
      "name": "NewMinLiquidatableCollateral",
      "type": "event"
    },
    {
      "anonymous": false,
      "inputs": [
        {
          "indexed": false,
          "internalType": "address",
          "name": "oldPendingAdmin",
          "type": "address"
        },
        {
          "indexed": false,
          "internalType": "address",
          "name": "newPendingAdmin",
          "type": "address"
        }
      ],
      "name": "NewPendingAdmin",
      "type": "event"
    },
    {
      "anonymous": false,
      "inputs": [
        {
          "indexed": false,
          "internalType": "contract PriceOracle",
          "name": "oldPriceOracle",
          "type": "address"
        },
        {
          "indexed": false,
          "internalType": "contract PriceOracle",
          "name": "newPriceOracle",
          "type": "address"
        }
      ],
      "name": "NewPriceOracle",
      "type": "event"
    },
    {
      "anonymous": false,
      "inputs": [
        {
          "indexed": true,
          "internalType": "contract VToken",
          "name": "vToken",
          "type": "address"
        },
        {
          "indexed": false,
          "internalType": "uint256",
          "name": "newSupplyCap",
          "type": "uint256"
        }
      ],
      "name": "NewSupplyCap",
      "type": "event"
    },
    {
      "inputs": [],
      "name": "acceptAdmin",
      "outputs": [],
      "stateMutability": "nonpayable",
      "type": "function"
    },
    {
      "inputs": [],
      "name": "accessControl",
      "outputs": [
        {
          "internalType": "address",
          "name": "",
          "type": "address"
        }
      ],
      "stateMutability": "view",
      "type": "function"
    },
    {
      "inputs": [
        {
          "internalType": "address",
          "name": "",
          "type": "address"
        },
        {
          "internalType": "uint256",
          "name": "",
          "type": "uint256"
        }
      ],
      "name": "accountAssets",
      "outputs": [
        {
          "internalType": "contract VToken",
          "name": "",
          "type": "address"
        }
      ],
      "stateMutability": "view",
      "type": "function"
    },
    {
      "inputs": [
        {
          "internalType": "address",
          "name": "market",
          "type": "address"
        },
        {
          "internalType": "enum ComptrollerV1Storage.Action",
          "name": "action",
          "type": "uint8"
        }
      ],
      "name": "actionPaused",
      "outputs": [
        {
          "internalType": "bool",
          "name": "",
          "type": "bool"
        }
      ],
      "stateMutability": "view",
      "type": "function"
    },
    {
      "inputs": [
        {
          "internalType": "contract RewardsDistributor",
          "name": "_rewardsDistributor",
          "type": "address"
        }
      ],
      "name": "addRewardsDistributor",
      "outputs": [
        {
          "internalType": "uint256",
          "name": "",
          "type": "uint256"
        }
      ],
      "stateMutability": "nonpayable",
      "type": "function"
    },
    {
      "inputs": [],
      "name": "admin",
      "outputs": [
        {
          "internalType": "address",
          "name": "",
          "type": "address"
        }
      ],
      "stateMutability": "view",
      "type": "function"
    },
    {
      "inputs": [
        {
          "internalType": "uint256",
          "name": "",
          "type": "uint256"
        }
      ],
      "name": "allMarkets",
      "outputs": [
        {
          "internalType": "contract VToken",
          "name": "",
          "type": "address"
        }
      ],
      "stateMutability": "view",
      "type": "function"
    },
    {
      "inputs": [
        {
          "internalType": "address",
          "name": "vToken",
          "type": "address"
        },
        {
          "internalType": "address",
          "name": "borrower",
          "type": "address"
        },
        {
          "internalType": "uint256",
          "name": "borrowAmount",
          "type": "uint256"
        }
      ],
      "name": "borrowAllowed",
      "outputs": [
        {
          "internalType": "uint256",
          "name": "",
          "type": "uint256"
        }
      ],
      "stateMutability": "nonpayable",
      "type": "function"
    },
    {
      "inputs": [],
      "name": "borrowCapGuardian",
      "outputs": [
        {
          "internalType": "address",
          "name": "",
          "type": "address"
        }
      ],
      "stateMutability": "view",
      "type": "function"
    },
    {
      "inputs": [
        {
          "internalType": "address",
          "name": "",
          "type": "address"
        }
      ],
      "name": "borrowCaps",
      "outputs": [
        {
          "internalType": "uint256",
          "name": "",
          "type": "uint256"
        }
      ],
      "stateMutability": "view",
      "type": "function"
    },
    {
      "inputs": [
        {
          "internalType": "address",
          "name": "",
          "type": "address"
        }
      ],
      "name": "borrowGuardianPaused",
      "outputs": [
        {
          "internalType": "bool",
          "name": "",
          "type": "bool"
        }
      ],
      "stateMutability": "view",
      "type": "function"
    },
    {
      "inputs": [
        {
          "internalType": "address",
          "name": "vToken",
          "type": "address"
        },
        {
          "internalType": "address",
          "name": "borrower",
          "type": "address"
        },
        {
          "internalType": "uint256",
          "name": "borrowAmount",
          "type": "uint256"
        }
      ],
      "name": "borrowVerify",
      "outputs": [],
      "stateMutability": "nonpayable",
      "type": "function"
    },
    {
      "inputs": [
        {
          "internalType": "address",
          "name": "account",
          "type": "address"
        },
        {
          "internalType": "contract VToken",
          "name": "vToken",
          "type": "address"
        }
      ],
      "name": "checkMembership",
      "outputs": [
        {
          "internalType": "bool",
          "name": "",
          "type": "bool"
        }
      ],
      "stateMutability": "view",
      "type": "function"
    },
    {
      "inputs": [],
      "name": "closeFactorMantissa",
      "outputs": [
        {
          "internalType": "uint256",
          "name": "",
          "type": "uint256"
        }
      ],
      "stateMutability": "view",
      "type": "function"
    },
    {
      "inputs": [
        {
          "internalType": "address[]",
          "name": "vTokens",
          "type": "address[]"
        }
      ],
      "name": "enterMarkets",
      "outputs": [
        {
          "internalType": "uint256[]",
          "name": "",
          "type": "uint256[]"
        }
      ],
      "stateMutability": "nonpayable",
      "type": "function"
    },
    {
      "inputs": [
        {
          "internalType": "address",
          "name": "vTokenAddress",
          "type": "address"
        }
      ],
      "name": "exitMarket",
      "outputs": [
        {
          "internalType": "uint256",
          "name": "",
          "type": "uint256"
        }
      ],
      "stateMutability": "nonpayable",
      "type": "function"
    },
    {
      "inputs": [
        {
          "internalType": "address",
          "name": "account",
          "type": "address"
        }
      ],
      "name": "getAccountLiquidity",
      "outputs": [
        {
          "internalType": "uint256",
          "name": "",
          "type": "uint256"
        },
        {
          "internalType": "uint256",
          "name": "",
          "type": "uint256"
        },
        {
          "internalType": "uint256",
          "name": "",
          "type": "uint256"
        }
      ],
      "stateMutability": "view",
      "type": "function"
    },
    {
      "inputs": [],
      "name": "getAllMarkets",
      "outputs": [
        {
          "internalType": "contract VToken[]",
          "name": "",
          "type": "address[]"
        }
      ],
      "stateMutability": "view",
      "type": "function"
    },
    {
      "inputs": [
        {
          "internalType": "address",
          "name": "account",
          "type": "address"
        }
      ],
      "name": "getAssetsIn",
      "outputs": [
        {
          "internalType": "contract VToken[]",
          "name": "",
          "type": "address[]"
        }
      ],
      "stateMutability": "view",
      "type": "function"
    },
    {
      "inputs": [
        {
          "internalType": "address",
          "name": "account",
          "type": "address"
        },
        {
          "internalType": "address",
          "name": "vTokenModify",
          "type": "address"
        },
        {
          "internalType": "uint256",
          "name": "redeemTokens",
          "type": "uint256"
        },
        {
          "internalType": "uint256",
          "name": "borrowAmount",
          "type": "uint256"
        }
      ],
      "name": "getHypotheticalAccountLiquidity",
      "outputs": [
        {
          "internalType": "uint256",
          "name": "",
          "type": "uint256"
        },
        {
          "internalType": "uint256",
          "name": "",
          "type": "uint256"
        },
        {
          "internalType": "uint256",
          "name": "",
          "type": "uint256"
        }
      ],
      "stateMutability": "view",
      "type": "function"
    },
    {
      "inputs": [
        {
          "internalType": "address",
          "name": "vToken",
          "type": "address"
        }
      ],
      "name": "getRewardsByMarket",
      "outputs": [
        {
          "components": [
            {
              "internalType": "address",
              "name": "rewardToken",
              "type": "address"
            },
            {
              "internalType": "uint256",
              "name": "supplySpeed",
              "type": "uint256"
            },
            {
              "internalType": "uint256",
              "name": "borrowSpeed",
              "type": "uint256"
            }
          ],
          "internalType": "struct Comptroller.RewardSpeeds[]",
          "name": "rewardSpeeds",
          "type": "tuple[]"
        }
      ],
      "stateMutability": "view",
      "type": "function"
    },
    {
      "inputs": [
        {
          "internalType": "address",
          "name": "user",
          "type": "address"
        }
      ],
      "name": "healAccount",
      "outputs": [],
      "stateMutability": "nonpayable",
      "type": "function"
    },
    {
      "inputs": [],
      "name": "initialize",
      "outputs": [],
      "stateMutability": "nonpayable",
      "type": "function"
    },
    {
      "inputs": [],
      "name": "isComptroller",
      "outputs": [
        {
          "internalType": "bool",
          "name": "",
          "type": "bool"
        }
      ],
      "stateMutability": "view",
      "type": "function"
    },
    {
      "inputs": [
        {
          "internalType": "contract VToken",
          "name": "vToken",
          "type": "address"
        }
      ],
      "name": "isDeprecated",
      "outputs": [
        {
          "internalType": "bool",
          "name": "",
          "type": "bool"
        }
      ],
      "stateMutability": "view",
      "type": "function"
    },
    {
      "inputs": [
        {
          "internalType": "contract VToken",
          "name": "vToken",
          "type": "address"
        }
      ],
      "name": "isMarketListed",
      "outputs": [
        {
          "internalType": "bool",
          "name": "",
          "type": "bool"
        }
      ],
      "stateMutability": "view",
      "type": "function"
    },
    {
      "inputs": [
        {
          "internalType": "address",
          "name": "borrower",
          "type": "address"
        },
        {
          "components": [
            {
              "internalType": "contract VToken",
              "name": "vTokenCollateral",
              "type": "address"
            },
            {
              "internalType": "contract VToken",
              "name": "vTokenBorrowed",
              "type": "address"
            },
            {
              "internalType": "uint256",
              "name": "repayAmount",
              "type": "uint256"
            }
          ],
          "internalType": "struct Comptroller.LiquidationOrder[]",
          "name": "orders",
          "type": "tuple[]"
        }
      ],
      "name": "liquidateAccount",
      "outputs": [],
      "stateMutability": "nonpayable",
      "type": "function"
    },
    {
      "inputs": [
        {
          "internalType": "address",
          "name": "vTokenBorrowed",
          "type": "address"
        },
        {
          "internalType": "address",
          "name": "vTokenCollateral",
          "type": "address"
        },
        {
          "internalType": "address",
          "name": "liquidator",
          "type": "address"
        },
        {
          "internalType": "address",
          "name": "borrower",
          "type": "address"
        },
        {
          "internalType": "uint256",
          "name": "repayAmount",
          "type": "uint256"
        },
        {
          "internalType": "bool",
          "name": "skipLiquidityCheck",
          "type": "bool"
        }
      ],
      "name": "liquidateBorrowAllowed",
      "outputs": [
        {
          "internalType": "uint256",
          "name": "",
          "type": "uint256"
        }
      ],
      "stateMutability": "nonpayable",
      "type": "function"
    },
    {
      "inputs": [
        {
          "internalType": "address",
          "name": "vTokenBorrowed",
          "type": "address"
        },
        {
          "internalType": "address",
          "name": "vTokenCollateral",
          "type": "address"
        },
        {
          "internalType": "address",
          "name": "liquidator",
          "type": "address"
        },
        {
          "internalType": "address",
          "name": "borrower",
          "type": "address"
        },
        {
          "internalType": "uint256",
          "name": "actualRepayAmount",
          "type": "uint256"
        },
        {
          "internalType": "uint256",
          "name": "seizeTokens",
          "type": "uint256"
        }
      ],
      "name": "liquidateBorrowVerify",
      "outputs": [],
      "stateMutability": "nonpayable",
      "type": "function"
    },
    {
      "inputs": [
        {
          "internalType": "address",
          "name": "vTokenBorrowed",
          "type": "address"
        },
        {
          "internalType": "address",
          "name": "vTokenCollateral",
          "type": "address"
        },
        {
          "internalType": "uint256",
          "name": "actualRepayAmount",
          "type": "uint256"
        }
      ],
      "name": "liquidateCalculateSeizeTokens",
      "outputs": [
        {
          "internalType": "uint256",
          "name": "",
          "type": "uint256"
        },
        {
          "internalType": "uint256",
          "name": "",
          "type": "uint256"
        }
      ],
      "stateMutability": "view",
      "type": "function"
    },
    {
      "inputs": [],
      "name": "liquidationIncentiveMantissa",
      "outputs": [
        {
          "internalType": "uint256",
          "name": "",
          "type": "uint256"
        }
      ],
      "stateMutability": "view",
      "type": "function"
    },
    {
      "inputs": [
        {
          "internalType": "address",
          "name": "",
          "type": "address"
        }
      ],
      "name": "markets",
      "outputs": [
        {
          "internalType": "bool",
          "name": "isListed",
          "type": "bool"
        },
        {
          "internalType": "uint256",
          "name": "collateralFactorMantissa",
          "type": "uint256"
        },
        {
          "internalType": "uint256",
          "name": "liquidationThresholdMantissa",
          "type": "uint256"
        }
      ],
      "stateMutability": "view",
      "type": "function"
    },
    {
      "inputs": [],
      "name": "maxAssets",
      "outputs": [
        {
          "internalType": "uint256",
          "name": "",
          "type": "uint256"
        }
      ],
      "stateMutability": "view",
      "type": "function"
    },
    {
      "inputs": [],
      "name": "minLiquidatableCollateral",
      "outputs": [
        {
          "internalType": "uint256",
          "name": "",
          "type": "uint256"
        }
      ],
      "stateMutability": "view",
      "type": "function"
    },
    {
      "inputs": [
        {
          "internalType": "address",
          "name": "vToken",
          "type": "address"
        },
        {
          "internalType": "address",
          "name": "minter",
          "type": "address"
        },
        {
          "internalType": "uint256",
          "name": "mintAmount",
          "type": "uint256"
        }
      ],
      "name": "mintAllowed",
      "outputs": [
        {
          "internalType": "uint256",
          "name": "",
          "type": "uint256"
        }
      ],
      "stateMutability": "nonpayable",
      "type": "function"
    },
    {
      "inputs": [
        {
          "internalType": "address",
          "name": "",
          "type": "address"
        }
      ],
      "name": "mintGuardianPaused",
      "outputs": [
        {
          "internalType": "bool",
          "name": "",
          "type": "bool"
        }
      ],
      "stateMutability": "view",
      "type": "function"
    },
    {
      "inputs": [
        {
          "internalType": "address",
          "name": "vToken",
          "type": "address"
        },
        {
          "internalType": "address",
          "name": "minter",
          "type": "address"
        },
        {
          "internalType": "uint256",
          "name": "actualMintAmount",
          "type": "uint256"
        },
        {
          "internalType": "uint256",
          "name": "mintTokens",
          "type": "uint256"
        }
      ],
      "name": "mintVerify",
      "outputs": [],
      "stateMutability": "nonpayable",
      "type": "function"
    },
    {
      "inputs": [],
      "name": "oracle",
      "outputs": [
        {
          "internalType": "contract PriceOracle",
          "name": "",
          "type": "address"
        }
      ],
      "stateMutability": "view",
      "type": "function"
    },
    {
      "inputs": [],
      "name": "pauseGuardian",
      "outputs": [
        {
          "internalType": "address",
          "name": "",
          "type": "address"
        }
      ],
      "stateMutability": "view",
      "type": "function"
    },
    {
      "inputs": [],
      "name": "pendingAdmin",
      "outputs": [
        {
          "internalType": "address",
          "name": "",
          "type": "address"
        }
      ],
      "stateMutability": "view",
      "type": "function"
    },
    {
      "inputs": [],
      "name": "poolRegistry",
      "outputs": [
        {
          "internalType": "address",
          "name": "",
          "type": "address"
        }
      ],
      "stateMutability": "view",
      "type": "function"
    },
    {
      "inputs": [
        {
          "internalType": "address",
          "name": "vToken",
          "type": "address"
        },
        {
          "internalType": "address",
          "name": "redeemer",
          "type": "address"
        },
        {
          "internalType": "uint256",
          "name": "redeemTokens",
          "type": "uint256"
        }
      ],
      "name": "redeemAllowed",
      "outputs": [
        {
          "internalType": "uint256",
          "name": "",
          "type": "uint256"
        }
      ],
      "stateMutability": "nonpayable",
      "type": "function"
    },
    {
      "inputs": [
        {
          "internalType": "address",
          "name": "vToken",
          "type": "address"
        },
        {
          "internalType": "address",
          "name": "redeemer",
          "type": "address"
        },
        {
          "internalType": "uint256",
          "name": "redeemAmount",
          "type": "uint256"
        },
        {
          "internalType": "uint256",
          "name": "redeemTokens",
          "type": "uint256"
        }
      ],
      "name": "redeemVerify",
      "outputs": [],
      "stateMutability": "nonpayable",
      "type": "function"
    },
    {
      "inputs": [
        {
          "internalType": "address",
          "name": "vToken",
          "type": "address"
        },
        {
          "internalType": "address",
          "name": "payer",
          "type": "address"
        },
        {
          "internalType": "address",
          "name": "borrower",
          "type": "address"
        },
        {
          "internalType": "uint256",
          "name": "repayAmount",
          "type": "uint256"
        }
      ],
      "name": "repayBorrowAllowed",
      "outputs": [
        {
          "internalType": "uint256",
          "name": "",
          "type": "uint256"
        }
      ],
      "stateMutability": "nonpayable",
      "type": "function"
    },
    {
      "inputs": [
        {
          "internalType": "address",
          "name": "vToken",
          "type": "address"
        },
        {
          "internalType": "address",
          "name": "payer",
          "type": "address"
        },
        {
          "internalType": "address",
          "name": "borrower",
          "type": "address"
        },
        {
          "internalType": "uint256",
          "name": "actualRepayAmount",
          "type": "uint256"
        },
        {
          "internalType": "uint256",
          "name": "borrowerIndex",
          "type": "uint256"
        }
      ],
      "name": "repayBorrowVerify",
      "outputs": [],
      "stateMutability": "nonpayable",
      "type": "function"
    },
    {
      "inputs": [
        {
          "internalType": "address",
          "name": "vTokenCollateral",
          "type": "address"
        },
        {
          "internalType": "address",
          "name": "seizerContract",
          "type": "address"
        },
        {
          "internalType": "address",
          "name": "liquidator",
          "type": "address"
        },
        {
          "internalType": "address",
          "name": "borrower",
          "type": "address"
        },
        {
          "internalType": "uint256",
          "name": "seizeTokens",
          "type": "uint256"
        }
      ],
      "name": "seizeAllowed",
      "outputs": [
        {
          "internalType": "uint256",
          "name": "",
          "type": "uint256"
        }
      ],
      "stateMutability": "nonpayable",
      "type": "function"
    },
    {
      "inputs": [],
      "name": "seizeGuardianPaused",
      "outputs": [
        {
          "internalType": "bool",
          "name": "",
          "type": "bool"
        }
      ],
      "stateMutability": "view",
      "type": "function"
    },
    {
      "inputs": [
        {
          "internalType": "address",
          "name": "vTokenCollateral",
          "type": "address"
        },
        {
          "internalType": "address",
          "name": "vTokenBorrowed",
          "type": "address"
        },
        {
          "internalType": "address",
          "name": "liquidator",
          "type": "address"
        },
        {
          "internalType": "address",
          "name": "borrower",
          "type": "address"
        },
        {
          "internalType": "uint256",
          "name": "seizeTokens",
          "type": "uint256"
        }
      ],
      "name": "seizeVerify",
      "outputs": [],
      "stateMutability": "nonpayable",
      "type": "function"
    },
    {
      "inputs": [
        {
          "internalType": "contract VToken[]",
          "name": "marketsList",
          "type": "address[]"
        },
        {
          "internalType": "enum ComptrollerV1Storage.Action[]",
          "name": "actionsList",
          "type": "uint8[]"
        },
        {
          "internalType": "bool",
          "name": "paused",
          "type": "bool"
        }
      ],
      "name": "setActionsPaused",
      "outputs": [],
      "stateMutability": "nonpayable",
      "type": "function"
    },
    {
      "inputs": [
        {
          "internalType": "uint256",
          "name": "newCloseFactorMantissa",
          "type": "uint256"
        }
      ],
      "name": "setCloseFactor",
      "outputs": [
        {
          "internalType": "uint256",
          "name": "",
          "type": "uint256"
        }
      ],
      "stateMutability": "nonpayable",
      "type": "function"
    },
    {
      "inputs": [
        {
          "internalType": "contract VToken",
          "name": "vToken",
          "type": "address"
        },
        {
          "internalType": "uint256",
          "name": "newCollateralFactorMantissa",
          "type": "uint256"
        },
        {
          "internalType": "uint256",
          "name": "newLiquidationThresholdMantissa",
          "type": "uint256"
        }
      ],
      "name": "setCollateralFactor",
      "outputs": [
        {
          "internalType": "uint256",
          "name": "",
          "type": "uint256"
        }
      ],
      "stateMutability": "nonpayable",
      "type": "function"
    },
    {
      "inputs": [
        {
          "internalType": "uint256",
          "name": "newLiquidationIncentiveMantissa",
          "type": "uint256"
        }
      ],
      "name": "setLiquidationIncentive",
      "outputs": [
        {
          "internalType": "uint256",
          "name": "",
          "type": "uint256"
        }
      ],
      "stateMutability": "nonpayable",
      "type": "function"
    },
    {
      "inputs": [
        {
          "internalType": "contract VToken[]",
          "name": "vTokens",
          "type": "address[]"
        },
        {
          "internalType": "uint256[]",
          "name": "newBorrowCaps",
          "type": "uint256[]"
        }
      ],
      "name": "setMarketBorrowCaps",
      "outputs": [],
      "stateMutability": "nonpayable",
      "type": "function"
    },
    {
      "inputs": [
        {
          "internalType": "contract VToken[]",
          "name": "vTokens",
          "type": "address[]"
        },
        {
          "internalType": "uint256[]",
          "name": "newSupplyCaps",
          "type": "uint256[]"
        }
      ],
      "name": "setMarketSupplyCaps",
      "outputs": [],
      "stateMutability": "nonpayable",
      "type": "function"
    },
    {
      "inputs": [
        {
          "internalType": "uint256",
          "name": "newMinLiquidatableCollateral",
          "type": "uint256"
        }
      ],
      "name": "setMinLiquidatableCollateral",
      "outputs": [],
      "stateMutability": "nonpayable",
      "type": "function"
    },
    {
      "inputs": [
        {
          "internalType": "address",
          "name": "newPendingAdmin_",
          "type": "address"
        }
      ],
      "name": "setPendingAdmin",
      "outputs": [],
      "stateMutability": "nonpayable",
      "type": "function"
    },
    {
      "inputs": [
        {
          "internalType": "contract PriceOracle",
          "name": "newOracle",
          "type": "address"
        }
      ],
      "name": "setPriceOracle",
      "outputs": [
        {
          "internalType": "uint256",
          "name": "",
          "type": "uint256"
        }
      ],
      "stateMutability": "nonpayable",
      "type": "function"
    },
    {
      "inputs": [
        {
          "internalType": "address",
          "name": "",
          "type": "address"
        }
      ],
      "name": "supplyCaps",
      "outputs": [
        {
          "internalType": "uint256",
          "name": "",
          "type": "uint256"
        }
      ],
      "stateMutability": "view",
      "type": "function"
    },
    {
      "inputs": [
        {
          "internalType": "contract VToken",
          "name": "vToken",
          "type": "address"
        }
      ],
      "name": "supportMarket",
      "outputs": [
        {
          "internalType": "uint256",
          "name": "",
          "type": "uint256"
        }
      ],
      "stateMutability": "nonpayable",
      "type": "function"
    },
    {
      "inputs": [
        {
          "internalType": "address",
          "name": "vToken",
          "type": "address"
        },
        {
          "internalType": "address",
          "name": "src",
          "type": "address"
        },
        {
          "internalType": "address",
          "name": "dst",
          "type": "address"
        },
        {
          "internalType": "uint256",
          "name": "transferTokens",
          "type": "uint256"
        }
      ],
      "name": "transferAllowed",
      "outputs": [
        {
          "internalType": "uint256",
          "name": "",
          "type": "uint256"
        }
      ],
      "stateMutability": "nonpayable",
      "type": "function"
    },
    {
      "inputs": [],
      "name": "transferGuardianPaused",
      "outputs": [
        {
          "internalType": "bool",
          "name": "",
          "type": "bool"
        }
      ],
      "stateMutability": "view",
      "type": "function"
    },
    {
      "inputs": [
        {
          "internalType": "address",
          "name": "vToken",
          "type": "address"
        },
        {
          "internalType": "address",
          "name": "src",
          "type": "address"
        },
        {
          "internalType": "address",
          "name": "dst",
          "type": "address"
        },
        {
          "internalType": "uint256",
          "name": "transferTokens",
          "type": "uint256"
        }
      ],
      "name": "transferVerify",
      "outputs": [],
      "stateMutability": "nonpayable",
      "type": "function"
    }
  ],
  "bytecode": "0x60c06040523480156200001157600080fd5b506040516200596e3803806200596e83398101604081905262000034916200007b565b603380546001600160a01b031916331790556001600160a01b039182166080521660a052620000b3565b80516001600160a01b03811681146200007657600080fd5b919050565b600080604083850312156200008f57600080fd5b6200009a836200005e565b9150620000aa602084016200005e565b90509250929050565b60805160a0516158646200010a6000396000818161042b01528181610adb01528181610fa30152818161179e01528181611c95015281816124fd01526133f20152600081816108070152612e3301526158646000f3fe608060405234801561001057600080fd5b50600436106103b95760003560e01c80636d35bf91116101f4578063b2068e841161011a578063da3d454c116100ad578063e87554461161007c578063e87554461461093a578063eabe7d9114610943578063ede4edd014610956578063f851a4401461096957600080fd5b8063da3d454c146108f8578063db5c65de1461090b578063dce1544914610914578063e85a29601461092757600080fd5b8063cab4f84c116100e9578063cab4f84c146108ac578063d02f7351146108bf578063d136af44146108d2578063d61757e8146108e557600080fd5b8063b2068e8414610831578063bdcdc25814610851578063c299823814610864578063c488847b1461088457600080fd5b8063929fe9a111610192578063abfceffc11610161578063abfceffc146107ce578063ac0b0bb7146107ee578063afcff50f14610802578063b0772d0b1461082957600080fd5b8063929fe9a11461075e57806394543c151461079f57806394b2294b146107b2578063a8431081146107bb57600080fd5b80638129fc1c116101ce5780638129fc1c146106df57806387f76303146106e75780638e8f294b146106fb578063921363951461074b57600080fd5b80636d35bf911461069b578063731f0c2b146106a95780637dc0d1d0146106cc57600080fd5b806347ef3b3b116102e457806352d84d1e116102775780635cc4fdeb116102465780635cc4fdeb146106445780635ec88c79146106575780636a56947e1461066a5780636d154ea51461067857600080fd5b806352d84d1e146105f8578063530e784f1461060b57806356aaee2d1461061e5780635c7786051461063157600080fd5b80634e79238f116102b35780634e79238f146105915780634ef4c3e1146105bf57806351dff989146105d2578063520b6c74146105e557600080fd5b806347ef3b3b1461053f5780634a584432146105555780634ada90af146105755780634dd18bf51461057e57600080fd5b806321af45691161035c578063267822471161032b57806326782247146104d95780632bce219c146104ec5780633d98a1e5146104ff57806341c728b91461052b57600080fd5b806321af45691461048d57806324008a62146104a057806324a3d622146104b357806324aaa220146104c657600080fd5b806312348e961161039857806312348e961461041357806313007d5514610426578063186db48f146104655780631ededc911461047857600080fd5b80627e3dd2146103be57806302c3bcbb146103db5780630e18b68114610409575b600080fd5b6103c6600181565b60405190151581526020015b60405180910390f35b6103fb6103e9366004614ed0565b60736020526000908152604090205481565b6040519081526020016103d2565b61041161097c565b005b6103fb610421366004614eed565b6109d1565b61044d7f000000000000000000000000000000000000000000000000000000000000000081565b6040516001600160a01b0390911681526020016103d2565b610411610473366004614f52565b610a7f565b610411610486366004614fbe565b5050505050565b60705461044d906001600160a01b031681565b6103fb6104ae366004615019565b610cff565b606c5461044d906001600160a01b031681565b6104116104d4366004615078565b610f42565b60655461044d906001600160a01b031681565b6104116104fa3660046150fc565b61110c565b6103c661050d366004614ed0565b6001600160a01b03166000908152606b602052604090205460ff1690565b610411610539366004615184565b50505050565b61041161054d3660046151ca565b505050505050565b6103fb610563366004614ed0565b60716020526000908152604090205481565b6103fb60685481565b61041161058c366004614ed0565b61142a565b6105a461059f366004615184565b61143e565b604080519384526020840192909252908201526060016103d2565b6103fb6105cd366004615238565b61146f565b6104116105e0366004615184565b6116f3565b6104116105f3366004614eed565b611742565b61044d610606366004614eed565b611876565b6103fb610619366004614ed0565b6118a0565b6103fb61062c366004614ed0565b61191a565b61041161063f366004615238565b505050565b6103fb610652366004615279565b611c28565b6105a4610665366004614ed0565b611f08565b610411610539366004615019565b6103c6610686366004614ed0565b606e6020526000908152604090205460ff1681565b6104116104863660046152ae565b6103c66106b7366004614ed0565b606d6020526000908152604090205460ff1681565b60665461044d906001600160a01b031681565b610411611f33565b606c546103c690600160a01b900460ff1681565b61072e610709366004614ed0565b606b6020526000908152604090208054600182015460029092015460ff909116919083565b6040805193151584526020840192909252908201526060016103d2565b610411610759366004614ed0565b612043565b6103c661076c366004615312565b6001600160a01b038082166000908152606b60209081526040808320938616835260039093019052205460ff1692915050565b6103c66107ad366004614ed0565b6123fd565b6103fb60695481565b6103fb6107c9366004614eed565b6124a5565b6107e16107dc366004614ed0565b6125c3565b6040516103d2919061534b565b606c546103c690600160a81b900460ff1681565b61044d7f000000000000000000000000000000000000000000000000000000000000000081565b6107e1612639565b61084461083f366004614ed0565b61269b565b6040516103d29190615398565b6103fb61085f366004615019565b61291e565b610877610872366004615410565b612b4e565b6040516103d291906154c9565b610897610892366004615238565b612c0c565b604080519283526020830191909152016103d2565b6103fb6108ba366004614ed0565b612e26565b6103fb6108cd3660046152ae565b613016565b6104116108e0366004614f52565b613396565b6103fb6108f3366004615501565b61365a565b6103fb610906366004615238565b613902565b6103fb60725481565b61044d61092236600461557a565b613dce565b6103c66109353660046155b5565b613e06565b6103fb60675481565b6103fb610951366004615238565b613e5d565b6103fb610964366004614ed0565b61400c565b60335461044d906001600160a01b031681565b6065546001600160a01b0316336001600160a01b0316146109b057604051634777b53760e11b815260040160405180910390fd5b6065546109c5906001600160a01b031661435b565b6109cf60006143ba565b565b6033546000906001600160a01b03163314610a335760405162461bcd60e51b815260206004820152601f60248201527f6f6e6c792061646d696e2063616e2073657420636c6f736520666163746f720060448201526064015b60405180910390fd5b606780549083905560408051828152602081018590527f3b9670cf975d26958e754b57098eaa2ac914d8d2a31b83257997b9f346110fd991015b60405180910390a160005b9392505050565b604080516318c5e8ab60e01b81523360048201526024810191909152602860448201527f7365744d61726b6574426f72726f774361707328616464726573735b5d2c75696064820152676e743235365b5d2960c01b60848201527f00000000000000000000000000000000000000000000000000000000000000006001600160a01b0316906318c5e8ab9060a401602060405180830381865afa158015610b2a573d6000803e3d6000fd5b505050506040513d601f19601f82011682018060405250810190610b4e9190615600565b610bb05760405162461bcd60e51b815260206004820152602d60248201527f6f6e6c792077686974656c6973746564206163636f756e74732063616e20736560448201526c7420626f72726f77206361707360981b6064820152608401610a2a565b82818115801590610bc057508082145b610bfc5760405162461bcd60e51b815260206004820152600d60248201526c1a5b9d985b1a59081a5b9c1d5d609a1b6044820152606401610a2a565b60005b82811015610cf657848482818110610c1957610c1961561d565b9050602002013560716000898985818110610c3657610c3661561d565b9050602002016020810190610c4b9190614ed0565b6001600160a01b03168152602081019190915260400160002055868682818110610c7757610c7761561d565b9050602002016020810190610c8c9190614ed0565b6001600160a01b03167f6f1951b2aad10f3fc81b86d91105b413a5b3f847a34bbc5ce1904201b14438f6868684818110610cc857610cc861561d565b90506020020135604051610cde91815260200190565b60405180910390a2610cef81615649565b9050610bff565b50505050505050565b6000610d0c85600361440d565b6066546040516396e85ced60e01b81526001600160a01b038781166004830152909116906396e85ced90602401600060405180830381600087803b158015610d5357600080fd5b505af1158015610d67573d6000803e3d6000fd5b505050506001600160a01b0385166000908152606b602052604090205460ff16610d9357506009610f3a565b60755460005b81811015610f335760006040518060200160405280896001600160a01b031663aa5af0fd6040518163ffffffff1660e01b8152600401602060405180830381865afa158015610dec573d6000803e3d6000fd5b505050506040513d601f19601f82011682018060405250810190610e109190615662565b815250905060758281548110610e2857610e2861561d565b600091825260209091200154604051632352607960e01b81526001600160a01b038a811660048301528351602483015290911690632352607990604401600060405180830381600087803b158015610e7f57600080fd5b505af1158015610e93573d6000803e3d6000fd5b5050505060758281548110610eaa57610eaa61561d565b600091825260209091200154604051636a95ddef60e01b81526001600160a01b038a8116600483015288811660248301528351604483015290911690636a95ddef90606401600060405180830381600087803b158015610f0957600080fd5b505af1158015610f1d573d6000803e3d6000fd5b505050505080610f2c90615649565b9050610d99565b5060009150505b949350505050565b604080516318c5e8ab60e01b81523360048201526024810191909152602a60448201527f736574416374696f6e7350617573656428616464726573735b5d2c75696e743260648201526935365b5d2c626f6f6c2960b01b60848201526000907f00000000000000000000000000000000000000000000000000000000000000006001600160a01b0316906318c5e8ab9060a401602060405180830381865afa158015610ff2573d6000803e3d6000fd5b505050506040513d601f19601f820116820180604052508101906110169190615600565b9050806110715760405162461bcd60e51b815260206004820152602360248201527f6f6e6c7920617574686f7269736564206164647265737365732063616e20706160448201526275736560e81b6064820152608401610a2a565b848360005b828110156111015760005b828110156110f0576110e08a8a8481811061109e5761109e61561d565b90506020020160208101906110b39190614ed0565b8989848181106110c5576110c561561d565b90506020020160208101906110da919061567b565b8861445b565b6110e981615649565b9050611081565b506110fa81615649565b9050611076565b505050505050505050565b600061111a8461456961459d565b905060725481600001511115611151576072548151604051631a451c0f60e21b815260048101929092526024820152604401610a2a565b6000611171604051806020016040528060685481525083604001516145e5565b825190915081106111a2578151604051632c1f8ef160e21b8152610a2a918391600401918252602082015260400190565b8260005b8181101561128557368686838181106111c1576111c161561d565b6060029190910191506111d990506020820182614ed0565b6001600160a01b0316638bbdb6db338a60408501356111fb6020870187614ed0565b60405160e086901b6001600160e01b03191681526001600160a01b0394851660048201529284166024840152604483019190915290911660648201526001608482015260a401600060405180830381600087803b15801561125b57600080fd5b505af115801561126f573d6000803e3d6000fd5b50505050508061127e90615649565b90506111a6565b506001600160a01b0386166000908152606a60209081526040808320805482518185028101850190935280835291929091908301828280156112f057602002820191906000526020600020905b81546001600160a01b031681526001909101906020018083116112d2575b505083519394506000925050505b818110156111015760008084838151811061131b5761131b61561d565b60209081029190910101516040516361bfb47160e11b81526001600160a01b038d811660048301529091169063c37f68e290602401608060405180830381865afa15801561136d573d6000803e3d6000fd5b505050506040513d601f19601f820116820180604052508101906113919190615696565b509250509150816000146113b85760405163015a83f960e51b815260040160405180910390fd5b80156114175760405162461bcd60e51b815260206004820152602860248201527f4e6f6e7a65726f20626f72726f772062616c616e6365206166746572206c69716044820152673ab4b230ba34b7b760c11b6064820152608401610a2a565b50508061142390615649565b90506112fe565b6114326145fd565b61143b816143ba565b50565b60008060008061145388888888614631614665565b608081015160a09091015160009a919950975095505050505050565b600061147c84600061440d565b6001600160a01b0384166000908152606b602052604090205460ff166114a65760095b9050610a78565b6001600160a01b038416600090815260736020526040902054806115055760405162461bcd60e51b815260206004820152601660248201527506d61726b657420737570706c792063617020697320360541b6044820152606401610a2a565b6000856001600160a01b03166318160ddd6040518163ffffffff1660e01b8152600401602060405180830381865afa158015611545573d6000803e3d6000fd5b505050506040513d601f19601f820116820180604052508101906115699190615662565b90506000611577828661489a565b9050828111156115c95760405162461bcd60e51b815260206004820152601960248201527f6d61726b657420737570706c79206361702072656163686564000000000000006044820152606401610a2a565b60755460005b818110156116e357607581815481106115ea576115ea61561d565b60009182526020909120015460405163051d1d4f60e11b81526001600160a01b038b8116600483015290911690630a3a3a9e90602401600060405180830381600087803b15801561163a57600080fd5b505af115801561164e573d6000803e3d6000fd5b50505050607581815481106116655761166561561d565b60009182526020909120015460405163db7954fd60e01b81526001600160a01b039091169063db7954fd906116a0908c908c906004016156cc565b600060405180830381600087803b1580156116ba57600080fd5b505af11580156116ce573d6000803e3d6000fd5b50505050806116dc90615649565b90506115cf565b5060005b98975050505050505050565b801580156117015750600082115b156105395760405162461bcd60e51b815260206004820152601160248201527072656465656d546f6b656e73207a65726f60781b6044820152606401610a2a565b604080516318c5e8ab60e01b81523360048201526024810191909152602560448201527f7365744d696e4c6971756964617461626c65436f6c6c61746572616c2875696e606482015264743235362960d81b60848201526000907f00000000000000000000000000000000000000000000000000000000000000006001600160a01b0316906318c5e8ab9060a401602060405180830381865afa1580156117ed573d6000803e3d6000fd5b505050506040513d601f19601f820116820180604052508101906118119190615600565b905080611830576040516282b42960e81b815260040160405180910390fd5b607280549083905560408051828152602081018590527eb4f4f153ad7f1397564a8830fef092481e8cf6a2cd3ff04f96d10ba51200a591015b60405180910390a1505050565b606f818154811061188657600080fd5b6000918252602090912001546001600160a01b0316905081565b6033546000906001600160a01b031633146118c7576118c1600160106148a6565b92915050565b606680546001600160a01b038481166001600160a01b03198316179092556040519116907fd52b2b9b7e9ee655fcb95d2e5b9e0c9f69e7ef2b8e9d2d0ea78402d576d22e2290610a6d90839086906156cc565b6033546000906001600160a01b0316331461193b576118c1600160146148a6565b6001600160a01b03821660009081526076602052604090205460ff16156119955760405162461bcd60e51b815260206004820152600e60248201526d616c72656164792065786973747360901b6044820152606401610a2a565b60755460005b81811015611b13576000607582815481106119b8576119b861561d565b600091825260209182902001546040805163f7c618c160e01b815290516001600160a01b039092169263f7c618c1926004808401938290030181865afa158015611a06573d6000803e3d6000fd5b505050506040513d601f19601f82011682018060405250810190611a2a91906156e6565b9050846001600160a01b031663f7c618c16040518163ffffffff1660e01b8152600401602060405180830381865afa158015611a6a573d6000803e3d6000fd5b505050506040513d601f19601f82011682018060405250810190611a8e91906156e6565b6001600160a01b0316816001600160a01b031603611b025760405162461bcd60e51b815260206004820152602b60248201527f6469737472696275746f7220616c72656164792065786973747320776974682060448201526a1d1a1a5cc81c995dd85c9960aa1b6064820152608401610a2a565b50611b0c81615649565b905061199b565b506075805460018082019092557f9a8d93986a7b9e6294572ea6736696119c195c1a9f5eae642d3c5fcd44e49dea0180546001600160a01b0319166001600160a01b0386169081179091556000908152607660205260408120805460ff1916909217909155606f54905b81811015611c1d57846001600160a01b0316632a869a4d606f8381548110611ba757611ba761561d565b60009182526020909120015460405160e083901b6001600160e01b03191681526001600160a01b039091166004820152602401600060405180830381600087803b158015611bf457600080fd5b505af1158015611c08573d6000803e3d6000fd5b5050505080611c1690615649565b9050611b7d565b506000949350505050565b604080516318c5e8ab60e01b81523360048201526024810191909152602c60448201527f736574436f6c6c61746572616c466163746f7228616464726573732c75696e7460648201526b3235362c75696e743235362960a01b608482015260009081906001600160a01b037f000000000000000000000000000000000000000000000000000000000000000016906318c5e8ab9060a401602060405180830381865afa158015611cdc573d6000803e3d6000fd5b505050506040513d601f19601f82011682018060405250810190611d009190615600565b905080611d1f576040516282b42960e81b815260040160405180910390fd5b6001600160a01b0385166000908152606b60205260409020805460ff16611d6457604051635a9a1eb960e11b81526001600160a01b0387166004820152602401610a2a565b670c7d713b49da0000851115611d8d576040516302f22cad60e61b815260040160405180910390fd5b84841115611dad5760405162f9474b60e61b815260040160405180910390fd5b8415801590611e27575060665460405163fc57d4df60e01b81526001600160a01b0388811660048301529091169063fc57d4df90602401602060405180830381865afa158015611e01573d6000803e3d6000fd5b505050506040513d601f19601f82011682018060405250810190611e259190615662565b155b15611e45576040516348fa9b2b60e11b815260040160405180910390fd5b6001810154858114611ea35760018201869055604080516001600160a01b0389168152602081018390529081018790527f70483e6592cd5182d45ac970e05bc62cdcc90e9d8ef2c2dbe686cf383bcd7fc59060600160405180910390a15b6002820154858114611f015760028301869055604080516001600160a01b038a168152602081018390529081018790527f9e92c7d5fef69846094f3ddcadcb9402c6ba469c461368714f1cabd8ef48b5919060600160405180910390a15b60006116e7565b600080600080611f1a8561463161459d565b608081015160a090910151600097919650945092505050565b600054610100900460ff1615808015611f535750600054600160ff909116105b80611f6d5750303b158015611f6d575060005460ff166001145b611fd05760405162461bcd60e51b815260206004820152602e60248201527f496e697469616c697a61626c653a20636f6e747261637420697320616c72656160448201526d191e481a5b9a5d1a585b1a5e995960921b6064820152608401610a2a565b6000805460ff191660011790558015611ff3576000805461ff0019166101001790555b611ffb61491f565b801561143b576000805461ff0019169055604051600181527f7f26b83ff96e1f2b6a682f133852f6798a09c465da95921460cefb38474024989060200160405180910390a150565b6001600160a01b0381166000908152606a60209081526040808320805482518185028101850190935280835291929091908301828280156120ad57602002820191906000526020600020905b81546001600160a01b0316815260019091019060200180831161208f575b5050835193945033925060009150505b828110156121e2578381815181106120d7576120d761561d565b60200260200101516001600160a01b031663a6afed956040518163ffffffff1660e01b81526004016020604051808303816000875af115801561211e573d6000803e3d6000fd5b505050506040513d601f19601f820116820180604052508101906121429190615662565b5060665484516001600160a01b03909116906396e85ced9086908490811061216c5761216c61561d565b60200260200101516040518263ffffffff1660e01b815260040161219f91906001600160a01b0391909116815260200190565b600060405180830381600087803b1580156121b957600080fd5b505af11580156121cd573d6000803e3d6000fd5b50505050806121db90615649565b90506120bd565b5060006121f18561456961459d565b905060725481600001511115612228576072548151604051631a451c0f60e21b815260048101929092526024820152604401610a2a565b60408051602080820183528351825282518082018452848401518152835191820190935260685481529091600091612260919061494e565b9050600061226e8383614996565b90506122926040518060200160405280670de0b6b3a7640000815250825190511090565b156122bd5781518351604051631a451c0f60e21b815260048101929092526024820152604401610a2a565b60005b868110156111015760008882815181106122dc576122dc61561d565b602002602001015190506000806122f3838d6149d0565b5091509150600061230486836145e5565b905082156123775760405163b2a02ff160e01b81526001600160a01b038b811660048301528e811660248301526044820185905285169063b2a02ff190606401600060405180830381600087803b15801561235e57600080fd5b505af1158015612372573d6000803e3d6000fd5b505050505b81156123e85760405163227f37ff60e11b81526001600160a01b038b811660048301528e81166024830152604482018390528516906344fe6ffe90606401600060405180830381600087803b1580156123cf57600080fd5b505af11580156123e3573d6000803e3d6000fd5b505050505b50505050806123f690615649565b90506122c0565b6001600160a01b0381166000908152606b602052604081206001015415801561242c575061242c826002613e06565b80156118c15750816001600160a01b031663173b99046040518163ffffffff1660e01b8152600401602060405180830381865afa158015612471573d6000803e3d6000fd5b505050506040513d601f19601f820116820180604052508101906124959190615662565b670de0b6b3a76400001492915050565b604080516318c5e8ab60e01b81523360048201526024810191909152602060448201527f7365744c69717569646174696f6e496e63656e746976652875696e7432353629606482015260009081906001600160a01b037f000000000000000000000000000000000000000000000000000000000000000016906318c5e8ab90608401602060405180830381865afa158015612544573d6000803e3d6000fd5b505050506040513d601f19601f820116820180604052508101906125689190615600565b90508061257b57610a786001600b6148a6565b606880549084905560408051828152602081018690527faeba5a6c40a8ac138134bff1aaa65debf25971188a58804bad717f82f0ec1316910160405180910390a16000610f3a565b6001600160a01b0381166000908152606a6020908152604080832080548251818502810185019093528083526060949383018282801561262c57602002820191906000526020600020905b81546001600160a01b0316815260019091019060200180831161260e575b5093979650505050505050565b6060606f80548060200260200160405190810160405280929190818152602001828054801561269157602002820191906000526020600020905b81546001600160a01b03168152600190910190602001808311612673575b5050505050905090565b60755460609060008167ffffffffffffffff8111156126bc576126bc6153fa565b60405190808252806020026020018201604052801561271a57816020015b612707604051806060016040528060006001600160a01b0316815260200160008152602001600081525090565b8152602001906001900390816126da5790505b50905060005b828110156129165760006075828154811061273d5761273d61561d565b600091825260209182902001546040805163f7c618c160e01b815290516001600160a01b039092169263f7c618c1926004808401938290030181865afa15801561278b573d6000803e3d6000fd5b505050506040513d601f19601f820116820180604052508101906127af91906156e6565b90506040518060600160405280826001600160a01b03168152602001607584815481106127de576127de61561d565b600091825260209091200154604051631d31307360e21b81526001600160a01b038a81166004830152909116906374c4c1cc90602401602060405180830381865afa158015612831573d6000803e3d6000fd5b505050506040513d601f19601f820116820180604052508101906128559190615662565b81526020016075848154811061286d5761286d61561d565b600091825260209091200154604051637c05a7c560e01b81526001600160a01b038a8116600483015290911690637c05a7c590602401602060405180830381865afa1580156128c0573d6000803e3d6000fd5b505050506040513d601f19601f820116820180604052508101906128e49190615662565b8152508383815181106128f9576128f961561d565b6020026020010181905250508061290f90615649565b9050612720565b509392505050565b600061292b85600661440d565b6066546040516396e85ced60e01b81526001600160a01b038781166004830152909116906396e85ced90602401600060405180830381600087803b15801561297257600080fd5b505af1158015612986573d6000803e3d6000fd5b505050506000612997868685614a73565b905080156129a6579050610f3a565b60755460005b81811015612b4057607581815481106129c7576129c761561d565b60009182526020909120015460405163051d1d4f60e11b81526001600160a01b038a8116600483015290911690630a3a3a9e90602401600060405180830381600087803b158015612a1757600080fd5b505af1158015612a2b573d6000803e3d6000fd5b5050505060758181548110612a4257612a4261561d565b60009182526020909120015460405163db7954fd60e01b81526001600160a01b039091169063db7954fd90612a7d908b908b906004016156cc565b600060405180830381600087803b158015612a9757600080fd5b505af1158015612aab573d6000803e3d6000fd5b5050505060758181548110612ac257612ac261561d565b60009182526020909120015460405163db7954fd60e01b81526001600160a01b039091169063db7954fd90612afd908b908a906004016156cc565b600060405180830381600087803b158015612b1757600080fd5b505af1158015612b2b573d6000803e3d6000fd5b5050505080612b3990615649565b90506129ac565b506000979650505050505050565b805160609060008167ffffffffffffffff811115612b6e57612b6e6153fa565b604051908082528060200260200182016040528015612b97578160200160208202803683370190505b50905060005b82811015612916576000858281518110612bb957612bb961561d565b60200260200101519050612bcd8133614b03565b6013811115612bde57612bde6155ea565b838381518110612bf057612bf061561d565b602090810291909101015250612c0581615649565b9050612b9d565b60665460405163fc57d4df60e01b81526001600160a01b038581166004830152600092839283929091169063fc57d4df90602401602060405180830381865afa158015612c5d573d6000803e3d6000fd5b505050506040513d601f19601f82011682018060405250810190612c819190615662565b60665460405163fc57d4df60e01b81526001600160a01b0388811660048301529293506000929091169063fc57d4df90602401602060405180830381865afa158015612cd1573d6000803e3d6000fd5b505050506040513d601f19601f82011682018060405250810190612cf59190615662565b9050811580612d02575080155b15612d1657600d6000935093505050612e1e565b6000866001600160a01b031663182df0f56040518163ffffffff1660e01b8152600401602060405180830381865afa158015612d56573d6000803e3d6000fd5b505050506040513d601f19601f82011682018060405250810190612d7a9190615662565b90506000612d946040518060200160405280600081525090565b604080516020808201835260008083528351808301855290815283518083018552606854815284519283019094528882529192612dd09161494e565b9250612df860405180602001604052808881525060405180602001604052808881525061494e565b9150612e048383614996565b9050612e10818b6145e5565b600099509750505050505050505b935093915050565b6000336001600160a01b037f00000000000000000000000000000000000000000000000000000000000000001614612eb15760405162461bcd60e51b815260206004820152602860248201527f6f6e6c7920706f6f6c52656769737472792063616e2063616c6c20737570706f6044820152671c9d13585c9ad95d60c21b6064820152608401610a2a565b6001600160a01b0382166000908152606b602052604090205460ff1615612ede576118c1600a60116148a6565b816001600160a01b0316633d9ea3a16040518163ffffffff1660e01b8152600401602060405180830381865afa158015612f1c573d6000803e3d6000fd5b505050506040513d601f19601f82011682018060405250810190612f409190615600565b506001600160a01b0382166000908152606b60205260408120805460ff19166001908117825581018290556002810191909155612f7c83614c02565b60755460005b81811015611c1d5760758181548110612f9d57612f9d61561d565b600091825260209091200154604051632a869a4d60e01b81526001600160a01b03878116600483015290911690632a869a4d90602401600060405180830381600087803b158015612fed57600080fd5b505af1158015613001573d6000803e3d6000fd5b505050508061300f90615649565b9050612f82565b600061302386600461440d565b6001600160a01b0386166000908152606b602052604090205460ff1661304d5760095b905061338d565b306001600160a01b038616036130e357306001600160a01b0316866001600160a01b0316635fe3b5676040518163ffffffff1660e01b8152600401602060405180830381865afa1580156130a5573d6000803e3d6000fd5b505050506040513d601f19601f820116820180604052508101906130c991906156e6565b6001600160a01b0316146130de576002613046565b6131ec565b6001600160a01b0385166000908152606b602052604090205460ff1661310a576009613046565b846001600160a01b0316635fe3b5676040518163ffffffff1660e01b8152600401602060405180830381865afa158015613148573d6000803e3d6000fd5b505050506040513d601f19601f8201168201806040525081019061316c91906156e6565b6001600160a01b0316866001600160a01b0316635fe3b5676040518163ffffffff1660e01b8152600401602060405180830381865afa1580156131b3573d6000803e3d6000fd5b505050506040513d601f19601f820116820180604052508101906131d791906156e6565b6001600160a01b0316146131ec576002613046565b60755460005b81811015613386576075818154811061320d5761320d61561d565b60009182526020909120015460405163051d1d4f60e11b81526001600160a01b038a8116600483015290911690630a3a3a9e90602401600060405180830381600087803b15801561325d57600080fd5b505af1158015613271573d6000803e3d6000fd5b50505050607581815481106132885761328861561d565b60009182526020909120015460405163db7954fd60e01b81526001600160a01b039091169063db7954fd906132c3908b9089906004016156cc565b600060405180830381600087803b1580156132dd57600080fd5b505af11580156132f1573d6000803e3d6000fd5b50505050607581815481106133085761330861561d565b60009182526020909120015460405163db7954fd60e01b81526001600160a01b039091169063db7954fd90613343908b908a906004016156cc565b600060405180830381600087803b15801561335d57600080fd5b505af1158015613371573d6000803e3d6000fd5b505050508061337f90615649565b90506131f2565b5060009150505b95945050505050565b604080516318c5e8ab60e01b81523360048201526024810191909152602860448201527f7365744d61726b6574537570706c794361707328616464726573735b5d2c75696064820152676e743235365b5d2960c01b60848201527f00000000000000000000000000000000000000000000000000000000000000006001600160a01b0316906318c5e8ab9060a401602060405180830381865afa158015613441573d6000803e3d6000fd5b505050506040513d601f19601f820116820180604052508101906134659190615600565b6134c75760405162461bcd60e51b815260206004820152602d60248201527f6f6e6c792077686974656c6973746564206163636f756e74732063616e20736560448201526c7420737570706c79206361707360981b6064820152608401610a2a565b8260008190036135155760405162461bcd60e51b8152602060048201526019602482015278696e76616c6964206e756d626572206f66206d61726b65747360381b6044820152606401610a2a565b8082146135605760405162461bcd60e51b8152602060048201526019602482015278696e76616c6964206e756d626572206f66206d61726b65747360381b6044820152606401610a2a565b60005b8181101561054d5783838281811061357d5761357d61561d565b905060200201356073600088888581811061359a5761359a61561d565b90506020020160208101906135af9190614ed0565b6001600160a01b031681526020810191909152604001600020558585828181106135db576135db61561d565b90506020020160208101906135f09190614ed0565b6001600160a01b03167f9e0ad9cee10bdf36b7fbd38910c0bdff0f275ace679b45b922381c2723d676f885858481811061362c5761362c61561d565b9050602002013560405161364291815260200190565b60405180910390a261365381615649565b9050613563565b600061366787600561440d565b6066546040516396e85ced60e01b81526001600160a01b038981166004830152909116906396e85ced90602401600060405180830381600087803b1580156136ae57600080fd5b505af11580156136c2573d6000803e3d6000fd5b50506066546040516396e85ced60e01b81526001600160a01b038a8116600483015290911692506396e85ced9150602401600060405180830381600087803b15801561370d57600080fd5b505af1158015613721573d6000803e3d6000fd5b505050506001600160a01b0387166000908152606b602052604090205460ff16158061376657506001600160a01b0386166000908152606b602052604090205460ff16155b15613773575060096138f8565b6040516395dd919360e01b81526001600160a01b038581166004830152600091908916906395dd919390602401602060405180830381865afa1580156137bd573d6000803e3d6000fd5b505050506040513d601f19601f820116820180604052508101906137e19190615662565b905082806137f357506137f3886123fd565b1561386357838110156138595760405162461bcd60e51b815260206004820152602860248201527f43616e206e6f74207265706179206d6f7265207468616e2074686520746f74616044820152676c20626f72726f7760c01b6064820152608401610a2a565b60009150506138f8565b60006138718661456961459d565b90506072548160000151116138a7576072548151604051636e61bb0560e11b815260048101929092526024820152604401610a2a565b8060a001516000036138be576003925050506138f8565b60006138da6040518060200160405280606754815250846145e5565b9050808611156138f057601193505050506138f8565b600093505050505b9695505050505050565b600061390f84600261440d565b6066546040516396e85ced60e01b81526001600160a01b038681166004830152909116906396e85ced90602401600060405180830381600087803b15801561395657600080fd5b505af115801561396a573d6000803e3d6000fd5b505050506001600160a01b0384166000908152606b602052604090205460ff1661399557600961149f565b6001600160a01b038085166000908152606b60209081526040808320938716835260039093019052205460ff16613a9257336001600160a01b03851614613a165760405162461bcd60e51b815260206004820152601560248201527439b2b73232b91036bab9ba103132903b2a37b5b2b760591b6044820152606401610a2a565b6000613a223385614b03565b90506000816013811115613a3857613a386155ea565b14613a5757806013811115613a4f57613a4f6155ea565b915050610a78565b6001600160a01b038086166000908152606b60209081526040808320938816835260039093019052205460ff16613a9057613a90615703565b505b60665460405163fc57d4df60e01b81526001600160a01b0386811660048301529091169063fc57d4df90602401602060405180830381865afa158015613adc573d6000803e3d6000fd5b505050506040513d601f19601f82011682018060405250810190613b009190615662565b600003613b0e57600d61149f565b6001600160a01b0384166000908152607160205260409020546fffffffffffffffffffffffffffffffff8114613c04576000856001600160a01b03166347bd37186040518163ffffffff1660e01b8152600401602060405180830381865afa158015613b7e573d6000803e3d6000fd5b505050506040513d601f19601f82011682018060405250810190613ba29190615662565b90506000613bb0828661489a565b9050828110613c015760405162461bcd60e51b815260206004820152601960248201527f6d61726b657420626f72726f77206361702072656163686564000000000000006044820152606401610a2a565b50505b6000613c168587600087614631614665565b60a081015190915015613c2e57600492505050610a78565b60755460005b81811015612b4057600060405180602001604052808a6001600160a01b031663aa5af0fd6040518163ffffffff1660e01b8152600401602060405180830381865afa158015613c87573d6000803e3d6000fd5b505050506040513d601f19601f82011682018060405250810190613cab9190615662565b815250905060758281548110613cc357613cc361561d565b600091825260209091200154604051632352607960e01b81526001600160a01b038b811660048301528351602483015290911690632352607990604401600060405180830381600087803b158015613d1a57600080fd5b505af1158015613d2e573d6000803e3d6000fd5b5050505060758281548110613d4557613d4561561d565b600091825260209091200154604051636a95ddef60e01b81526001600160a01b038b811660048301528a811660248301528351604483015290911690636a95ddef90606401600060405180830381600087803b158015613da457600080fd5b505af1158015613db8573d6000803e3d6000fd5b505050505080613dc790615649565b9050613c34565b606a6020528160005260406000208181548110613dea57600080fd5b6000918252602090912001546001600160a01b03169150829050565b6001600160a01b038216600090815260746020526040812081836008811115613e3157613e316155ea565b6008811115613e4257613e426155ea565b815260208101919091526040016000205460ff169392505050565b6000613e6a84600161440d565b6066546040516396e85ced60e01b81526001600160a01b038681166004830152909116906396e85ced90602401600060405180830381600087803b158015613eb157600080fd5b505af1158015613ec5573d6000803e3d6000fd5b505050506000613ed6858585614a73565b90508015613ee5579050610a78565b60755460005b81811015613fff5760758181548110613f0657613f0661561d565b60009182526020909120015460405163051d1d4f60e11b81526001600160a01b03898116600483015290911690630a3a3a9e90602401600060405180830381600087803b158015613f5657600080fd5b505af1158015613f6a573d6000803e3d6000fd5b5050505060758181548110613f8157613f8161561d565b60009182526020909120015460405163db7954fd60e01b81526001600160a01b039091169063db7954fd90613fbc908a908a906004016156cc565b600060405180830381600087803b158015613fd657600080fd5b505af1158015613fea573d6000803e3d6000fd5b5050505080613ff890615649565b9050613eeb565b5060009695505050505050565b600061401982600861440d565b6040516361bfb47160e11b81523360048201528290600090819081906001600160a01b0385169063c37f68e290602401608060405180830381865afa158015614066573d6000803e3d6000fd5b505050506040513d601f19601f8201168201806040525081019061408a9190615696565b50925092509250826000146140ef5760405162461bcd60e51b815260206004820152602560248201527f657869744d61726b65743a206765744163636f756e74536e617073686f742066604482015264185a5b195960da1b6064820152608401610a2a565b8015614101576138f8600c60026148a6565b600061410e873385614a73565b9050801561412e57614123600e600383614cea565b979650505050505050565b6001600160a01b0385166000908152606b60209081526040808320338452600381019092529091205460ff1661416c57600098975050505050505050565b3360009081526003820160209081526040808320805460ff19169055606a8252808320805482518185028101850190935280835291929091908301828280156141de57602002820191906000526020600020905b81546001600160a01b031681526001909101906020018083116141c0575b5050835193945083925060009150505b8281101561424057896001600160a01b03168482815181106142125761421261561d565b60200260200101516001600160a01b03160361423057809150614240565b61423981615649565b90506141ee565b5081811061425057614250615703565b336000908152606a602052604090208054819061426f90600190615719565b8154811061427f5761427f61561d565b9060005260206000200160009054906101000a90046001600160a01b03168183815481106142af576142af61561d565b9060005260206000200160006101000a8154816001600160a01b0302191690836001600160a01b03160217905550808054806142ed576142ed615730565b600082815260209020810160001990810180546001600160a01b03191690550190556040517fe699a64c18b07ac5b7301aa273f36a2287239eb9501d81950672794afba29a0d90614341908c9033906156cc565b60405180910390a160009c9b505050505050505050505050565b603380546001600160a01b038381166001600160a01b03198316179092556040519116907ff9ffabca9c8276e99321725bcb43fb076a6c66a54b7f21c4e8146d8519b417dc906143ae90839085906156cc565b60405180910390a15050565b606580546001600160a01b038381166001600160a01b03198316179092556040519116907fca4f2f25d0898edd99413412fb94012f9e54ec8142f9b093e7720646a95b16a9906143ae90839085906156cc565b6144178282613e06565b156144575760405162461bcd60e51b815260206004820152601060248201526f1858dd1a5bdb881a5cc81c185d5cd95960821b6044820152606401610a2a565b5050565b6001600160a01b0383166000908152606b602052604090205460ff166144d45760405162461bcd60e51b815260206004820152602860248201527f63616e6e6f742070617573652061206d61726b65742074686174206973206e6f6044820152671d081b1a5cdd195960c21b6064820152608401610a2a565b6001600160a01b03831660009081526074602052604081208291846008811115614500576145006155ea565b6008811115614511576145116155ea565b815260200190815260200160002060006101000a81548160ff0219169083151502179055507f35007a986bcd36d2f73fc7f1b73762e12eadb4406dd163194950fd3b5a6a827d83838360405161186993929190615746565b6040805160208082018352600091829052825180820184526001600160a01b03949094168252606b90522060020154815290565b6145d66040518060c001604052806000815260200160008152602001600081526020016000815260200160008152602001600081525090565b610a7883600080600086614665565b6000806145f28484614d62565b9050610f3a81614d8a565b6033546001600160a01b0316336001600160a01b0316146109cf57604051634777b53760e11b815260040160405180910390fd5b6040805160208082018352600091829052825180820184526001600160a01b03949094168252606b90522060010154815290565b61469e6040518060c001604052806000815260200160008152602001600081526020016000815260200160008152602001600081525090565b6001600160a01b0386166000908152606a602090815260408083208054825181850281018501909352808352919290919083018282801561470857602002820191906000526020600020905b81546001600160a01b031681526001909101906020018083116146ea575b505083519394506000925050505b8181101561483c5760008382815181106147325761473261561d565b60200260200101519050600080600061474b848e6149d0565b9250925092506000604051806020016040528061476787614da2565b815250905060006147866040518060200160405280858152508361494e565b905060006147a061479a888e63ffffffff16565b8361494e565b90506147b181878d60200151614e37565b60208c01528a516147c59083908890614e37565b8b5260408b01516147d99084908790614e37565b8b60400181815250508e6001600160a01b0316876001600160a01b0316036148245761480a818f8d60600151614e37565b60608c0181905261481e9084908f90614e37565b60608c01525b505050505050508061483590615649565b9050614716565b50600083606001518460400151614853919061578a565b9050808460200151111561487a5760208401518190036080850152600060a085015261488e565b600060808501526020840151810360a08501525b50505095945050505050565b6000610a78828461578a565b60007f45b96fe442630264581b197e84bbada861235052c5a1aadfff9ea4e40a969aa08360138111156148db576148db6155ea565b8360148111156148ed576148ed6155ea565b60408051928352602083019190915260009082015260600160405180910390a1826013811115610a7857610a786155ea565b600054610100900460ff166149465760405162461bcd60e51b8152600401610a2a906157a2565b6109cf614e58565b6040805160208101909152600081526040518060200160405280670de0b6b3a764000061498386600001518660000151614e93565b61498d91906157ed565b90529392505050565b604080516020810190915260008152604051806020016040528061498d6149c98660000151670de0b6b3a7640000614e93565b8551614e9f565b6040516361bfb47160e11b81526001600160a01b03828116600483015260009182918291829187169063c37f68e290602401608060405180830381865afa158015614a1f573d6000803e3d6000fd5b505050506040513d601f19601f82011682018060405250810190614a439190615696565b9196509450925090508015614a6b5760405163015a83f960e51b815260040160405180910390fd5b509250925092565b6001600160a01b0383166000908152606b602052604081205460ff16614a9a57600961149f565b6001600160a01b038085166000908152606b60209081526040808320938716835260039093019052205460ff16614ad257600061149f565b6000614ae48486856000614631614665565b60a081015190915015614af8576004613a4f565b600095945050505050565b6000614b1083600761440d565b6001600160a01b0383166000908152606b60205260409020805460ff16614b3b5760099150506118c1565b6001600160a01b038316600090815260038201602052604090205460ff1615614b685760009150506118c1565b6001600160a01b03838116600090815260038301602090815260408083208054600160ff199091168117909155606a8352818420805491820181558452919092200180546001600160a01b03191692871692909217909155517f3ab23ab0d51cccc0c3085aec51f99228625aa1a922b3a8ca89a26b0f2027a1a590614bf090869086906156cc565b60405180910390a15060009392505050565b606f5460005b81811015614c9657826001600160a01b0316606f8281548110614c2d57614c2d61561d565b6000918252602090912001546001600160a01b031603614c865760405162461bcd60e51b81526020600482015260146024820152731b585c9ad95d08185b1c9958591e48185919195960621b6044820152606401610a2a565b614c8f81615649565b9050614c08565b5050606f80546001810182556000919091527f39f2babe526038520877fc7c33d81accf578af4a06c5fa6b0d038cae36e127110180546001600160a01b0319166001600160a01b0392909216919091179055565b60007f45b96fe442630264581b197e84bbada861235052c5a1aadfff9ea4e40a969aa0846013811115614d1f57614d1f6155ea565b846014811115614d3157614d316155ea565b604080519283526020830191909152810184905260600160405180910390a1836013811115610f3a57610f3a6155ea565b604080516020810190915260008152604051806020016040528061498d856000015185614e93565b80516000906118c190670de0b6b3a7640000906157ed565b60665460405163fc57d4df60e01b81526001600160a01b038381166004830152600092839291169063fc57d4df90602401602060405180830381865afa158015614df0573d6000803e3d6000fd5b505050506040513d601f19601f82011682018060405250810190614e149190615662565b9050806000036118c1576040516348fa9b2b60e11b815260040160405180910390fd5b600080614e448585614d62565b905061338d614e5282614d8a565b8461489a565b600054610100900460ff16614e7f5760405162461bcd60e51b8152600401610a2a906157a2565b603380546001600160a01b03191633179055565b6000610a78828461580f565b6000610a7882846157ed565b6001600160a01b038116811461143b57600080fd5b8035614ecb81614eab565b919050565b600060208284031215614ee257600080fd5b8135610a7881614eab565b600060208284031215614eff57600080fd5b5035919050565b60008083601f840112614f1857600080fd5b50813567ffffffffffffffff811115614f3057600080fd5b6020830191508360208260051b8501011115614f4b57600080fd5b9250929050565b60008060008060408587031215614f6857600080fd5b843567ffffffffffffffff80821115614f8057600080fd5b614f8c88838901614f06565b90965094506020870135915080821115614fa557600080fd5b50614fb287828801614f06565b95989497509550505050565b600080600080600060a08688031215614fd657600080fd5b8535614fe181614eab565b94506020860135614ff181614eab565b9350604086013561500181614eab565b94979396509394606081013594506080013592915050565b6000806000806080858703121561502f57600080fd5b843561503a81614eab565b9350602085013561504a81614eab565b9250604085013561505a81614eab565b9396929550929360600135925050565b801515811461143b57600080fd5b60008060008060006060868803121561509057600080fd5b853567ffffffffffffffff808211156150a857600080fd5b6150b489838a01614f06565b909750955060208801359150808211156150cd57600080fd5b506150da88828901614f06565b90945092505060408601356150ee8161506a565b809150509295509295909350565b60008060006040848603121561511157600080fd5b833561511c81614eab565b9250602084013567ffffffffffffffff8082111561513957600080fd5b818601915086601f83011261514d57600080fd5b81358181111561515c57600080fd5b87602060608302850101111561517157600080fd5b6020830194508093505050509250925092565b6000806000806080858703121561519a57600080fd5b84356151a581614eab565b935060208501356151b581614eab565b93969395505050506040820135916060013590565b60008060008060008060c087890312156151e357600080fd5b86356151ee81614eab565b955060208701356151fe81614eab565b9450604087013561520e81614eab565b9350606087013561521e81614eab565b9598949750929560808101359460a0909101359350915050565b60008060006060848603121561524d57600080fd5b833561525881614eab565b9250602084013561526881614eab565b929592945050506040919091013590565b60008060006060848603121561528e57600080fd5b833561529981614eab565b95602085013595506040909401359392505050565b600080600080600060a086880312156152c657600080fd5b85356152d181614eab565b945060208601356152e181614eab565b935060408601356152f181614eab565b9250606086013561530181614eab565b949793965091946080013592915050565b6000806040838503121561532557600080fd5b823561533081614eab565b9150602083013561534081614eab565b809150509250929050565b6020808252825182820181905260009190848201906040850190845b8181101561538c5783516001600160a01b031683529284019291840191600101615367565b50909695505050505050565b602080825282518282018190526000919060409081850190868401855b828110156153ed57815180516001600160a01b03168552868101518786015285015185850152606090930192908501906001016153b5565b5091979650505050505050565b634e487b7160e01b600052604160045260246000fd5b6000602080838503121561542357600080fd5b823567ffffffffffffffff8082111561543b57600080fd5b818501915085601f83011261544f57600080fd5b813581811115615461576154616153fa565b8060051b604051601f19603f83011681018181108582111715615486576154866153fa565b6040529182528482019250838101850191888311156154a457600080fd5b938501935b828510156116e7576154ba85614ec0565b845293850193928501926154a9565b6020808252825182820181905260009190848201906040850190845b8181101561538c578351835292840192918401916001016154e5565b60008060008060008060c0878903121561551a57600080fd5b863561552581614eab565b9550602087013561553581614eab565b9450604087013561554581614eab565b9350606087013561555581614eab565b92506080870135915060a087013561556c8161506a565b809150509295509295509295565b6000806040838503121561558d57600080fd5b823561559881614eab565b946020939093013593505050565b803560098110614ecb57600080fd5b600080604083850312156155c857600080fd5b82356155d381614eab565b91506155e1602084016155a6565b90509250929050565b634e487b7160e01b600052602160045260246000fd5b60006020828403121561561257600080fd5b8151610a788161506a565b634e487b7160e01b600052603260045260246000fd5b634e487b7160e01b600052601160045260246000fd5b60006001820161565b5761565b615633565b5060010190565b60006020828403121561567457600080fd5b5051919050565b60006020828403121561568d57600080fd5b610a78826155a6565b600080600080608085870312156156ac57600080fd5b505082516020840151604085015160609095015191969095509092509050565b6001600160a01b0392831681529116602082015260400190565b6000602082840312156156f857600080fd5b8151610a7881614eab565b634e487b7160e01b600052600160045260246000fd5b60008282101561572b5761572b615633565b500390565b634e487b7160e01b600052603160045260246000fd5b6001600160a01b0384168152606081016009841061577457634e487b7160e01b600052602160045260246000fd5b8360208301528215156040830152949350505050565b6000821982111561579d5761579d615633565b500190565b6020808252602b908201527f496e697469616c697a61626c653a20636f6e7472616374206973206e6f74206960408201526a6e697469616c697a696e6760a81b606082015260800190565b60008261580a57634e487b7160e01b600052601260045260246000fd5b500490565b600081600019048311821515161561582957615829615633565b50029056fea2646970667358221220444910a48da745b2b5e96011ae2a4a4100571c2c8fa886ee2bd242e3748c3b3564736f6c634300080d0033",
  "linkReferences": {},
  "deployedLinkReferences": {}
}