{
  "_format": "hh-sol-artifact-1",
  "contractName": "PoolRegistry",
  "sourceName": "contracts/Pool/PoolRegistry.sol",
  "abi": [
    {
      "anonymous": false,
      "inputs": [
        {
          "indexed": false,
          "internalType": "uint8",
          "name": "version",
          "type": "uint8"
        }
      ],
      "name": "Initialized",
      "type": "event"
    },
    {
      "anonymous": false,
      "inputs": [
        {
          "indexed": true,
          "internalType": "address",
          "name": "comptroller",
          "type": "address"
        },
        {
          "indexed": false,
          "internalType": "address",
          "name": "vTokenAddress",
          "type": "address"
        }
      ],
      "name": "MarketAdded",
      "type": "event"
    },
    {
      "anonymous": false,
      "inputs": [
        {
          "indexed": true,
          "internalType": "address",
          "name": "previousOwner",
          "type": "address"
        },
        {
          "indexed": true,
          "internalType": "address",
          "name": "newOwner",
          "type": "address"
        }
      ],
      "name": "OwnershipTransferred",
      "type": "event"
    },
    {
      "anonymous": false,
      "inputs": [
        {
          "indexed": true,
          "internalType": "address",
          "name": "comptroller",
          "type": "address"
        },
        {
          "components": [
            {
              "internalType": "enum PoolRegistry.RiskRating",
              "name": "riskRating",
              "type": "uint8"
            },
            {
              "internalType": "string",
              "name": "category",
              "type": "string"
            },
            {
              "internalType": "string",
              "name": "logoURL",
              "type": "string"
            },
            {
              "internalType": "string",
              "name": "description",
              "type": "string"
            }
          ],
          "indexed": false,
          "internalType": "struct PoolRegistry.VenusPoolMetaData",
          "name": "oldMetadata",
          "type": "tuple"
        },
        {
          "components": [
            {
              "internalType": "enum PoolRegistry.RiskRating",
              "name": "riskRating",
              "type": "uint8"
            },
            {
              "internalType": "string",
              "name": "category",
              "type": "string"
            },
            {
              "internalType": "string",
              "name": "logoURL",
              "type": "string"
            },
            {
              "internalType": "string",
              "name": "description",
              "type": "string"
            }
          ],
          "indexed": false,
          "internalType": "struct PoolRegistry.VenusPoolMetaData",
          "name": "newMetadata",
          "type": "tuple"
        }
      ],
      "name": "PoolMetadataUpdated",
      "type": "event"
    },
    {
      "anonymous": false,
      "inputs": [
        {
          "indexed": true,
          "internalType": "address",
          "name": "comptroller",
          "type": "address"
        },
        {
          "indexed": false,
          "internalType": "string",
          "name": "name",
          "type": "string"
        }
      ],
      "name": "PoolNameSet",
      "type": "event"
    },
    {
      "anonymous": false,
      "inputs": [
        {
          "indexed": true,
          "internalType": "address",
          "name": "comptroller",
          "type": "address"
        },
        {
          "components": [
            {
              "internalType": "string",
              "name": "name",
              "type": "string"
            },
            {
              "internalType": "address",
              "name": "creator",
              "type": "address"
            },
            {
              "internalType": "address",
              "name": "comptroller",
              "type": "address"
            },
            {
              "internalType": "uint256",
              "name": "blockPosted",
              "type": "uint256"
            },
            {
              "internalType": "uint256",
              "name": "timestampPosted",
              "type": "uint256"
            }
          ],
          "indexed": false,
          "internalType": "struct PoolRegistry.VenusPool",
          "name": "pool",
          "type": "tuple"
        }
      ],
      "name": "PoolRegistered",
      "type": "event"
    },
    {
      "inputs": [
        {
          "components": [
            {
              "internalType": "address",
              "name": "comptroller",
              "type": "address"
            },
            {
              "internalType": "address",
              "name": "asset",
              "type": "address"
            },
            {
              "internalType": "uint8",
              "name": "decimals",
              "type": "uint8"
            },
            {
              "internalType": "string",
              "name": "name",
              "type": "string"
            },
            {
              "internalType": "string",
              "name": "symbol",
              "type": "string"
            },
            {
              "internalType": "enum PoolRegistry.InterestRateModels",
              "name": "rateModel",
              "type": "uint8"
            },
            {
              "internalType": "uint256",
              "name": "baseRatePerYear",
              "type": "uint256"
            },
            {
              "internalType": "uint256",
              "name": "multiplierPerYear",
              "type": "uint256"
            },
            {
              "internalType": "uint256",
              "name": "jumpMultiplierPerYear",
              "type": "uint256"
            },
            {
              "internalType": "uint256",
              "name": "kink_",
              "type": "uint256"
            },
            {
              "internalType": "uint256",
              "name": "collateralFactor",
              "type": "uint256"
            },
            {
              "internalType": "uint256",
              "name": "liquidationThreshold",
              "type": "uint256"
            },
            {
              "internalType": "contract AccessControlManager",
              "name": "accessControlManager",
              "type": "address"
            },
            {
              "internalType": "address",
              "name": "vTokenProxyAdmin",
              "type": "address"
            },
            {
              "internalType": "address",
              "name": "beaconAddress",
              "type": "address"
            }
          ],
          "internalType": "struct PoolRegistry.AddMarketInput",
          "name": "input",
          "type": "tuple"
        }
      ],
      "name": "addMarket",
      "outputs": [],
      "stateMutability": "nonpayable",
      "type": "function"
    },
    {
      "inputs": [
        {
          "internalType": "string",
          "name": "name",
          "type": "string"
        },
        {
          "internalType": "address",
          "name": "beaconAddress",
          "type": "address"
        },
        {
          "internalType": "uint256",
          "name": "closeFactor",
          "type": "uint256"
        },
        {
          "internalType": "uint256",
          "name": "liquidationIncentive",
          "type": "uint256"
        },
        {
          "internalType": "uint256",
          "name": "minLiquidatableCollateral",
          "type": "uint256"
        },
        {
          "internalType": "address",
          "name": "priceOracle",
          "type": "address"
        }
      ],
      "name": "createRegistryPool",
      "outputs": [
        {
          "internalType": "uint256",
          "name": "index",
          "type": "uint256"
        },
        {
          "internalType": "address",
          "name": "proxyAddress",
          "type": "address"
        }
      ],
      "stateMutability": "nonpayable",
      "type": "function"
    },
    {
      "inputs": [],
      "name": "getAllPools",
      "outputs": [
        {
          "components": [
            {
              "internalType": "string",
              "name": "name",
              "type": "string"
            },
            {
              "internalType": "address",
              "name": "creator",
              "type": "address"
            },
            {
              "internalType": "address",
              "name": "comptroller",
              "type": "address"
            },
            {
              "internalType": "uint256",
              "name": "blockPosted",
              "type": "uint256"
            },
            {
              "internalType": "uint256",
              "name": "timestampPosted",
              "type": "uint256"
            }
          ],
          "internalType": "struct PoolRegistry.VenusPool[]",
          "name": "",
          "type": "tuple[]"
        }
      ],
      "stateMutability": "view",
      "type": "function"
    },
    {
      "inputs": [
        {
          "internalType": "address",
          "name": "comptroller",
          "type": "address"
        }
      ],
      "name": "getPoolByComptroller",
      "outputs": [
        {
          "components": [
            {
              "internalType": "string",
              "name": "name",
              "type": "string"
            },
            {
              "internalType": "address",
              "name": "creator",
              "type": "address"
            },
            {
              "internalType": "address",
              "name": "comptroller",
              "type": "address"
            },
            {
              "internalType": "uint256",
              "name": "blockPosted",
              "type": "uint256"
            },
            {
              "internalType": "uint256",
              "name": "timestampPosted",
              "type": "uint256"
            }
          ],
          "internalType": "struct PoolRegistry.VenusPool",
          "name": "",
          "type": "tuple"
        }
      ],
      "stateMutability": "view",
      "type": "function"
    },
    {
      "inputs": [
        {
          "internalType": "address",
          "name": "asset",
          "type": "address"
        }
      ],
      "name": "getPoolsSupportedByAsset",
      "outputs": [
        {
          "internalType": "address[]",
          "name": "",
          "type": "address[]"
        }
      ],
      "stateMutability": "view",
      "type": "function"
    },
    {
      "inputs": [
        {
          "internalType": "address",
          "name": "comptroller",
          "type": "address"
        },
        {
          "internalType": "address",
          "name": "asset",
          "type": "address"
        }
      ],
      "name": "getVTokenForAsset",
      "outputs": [
        {
          "internalType": "address",
          "name": "",
          "type": "address"
        }
      ],
      "stateMutability": "view",
      "type": "function"
    },
    {
      "inputs": [
        {
          "internalType": "address",
          "name": "comptroller",
          "type": "address"
        }
      ],
      "name": "getVenusPoolMetadata",
      "outputs": [
        {
          "components": [
            {
              "internalType": "enum PoolRegistry.RiskRating",
              "name": "riskRating",
              "type": "uint8"
            },
            {
              "internalType": "string",
              "name": "category",
              "type": "string"
            },
            {
              "internalType": "string",
              "name": "logoURL",
              "type": "string"
            },
            {
              "internalType": "string",
              "name": "description",
              "type": "string"
            }
          ],
          "internalType": "struct PoolRegistry.VenusPoolMetaData",
          "name": "",
          "type": "tuple"
        }
      ],
      "stateMutability": "view",
      "type": "function"
    },
    {
      "inputs": [
        {
          "internalType": "contract VTokenProxyFactory",
          "name": "_vTokenFactory",
          "type": "address"
        },
        {
          "internalType": "contract JumpRateModelFactory",
          "name": "_jumpRateFactory",
          "type": "address"
        },
        {
          "internalType": "contract WhitePaperInterestRateModelFactory",
          "name": "_whitePaperFactory",
          "type": "address"
        },
        {
          "internalType": "contract Shortfall",
          "name": "_shortfall",
          "type": "address"
        },
        {
          "internalType": "address payable",
          "name": "riskFund_",
          "type": "address"
        },
        {
          "internalType": "address payable",
          "name": "protocolShareReserve_",
          "type": "address"
        }
      ],
      "name": "initialize",
      "outputs": [],
      "stateMutability": "nonpayable",
      "type": "function"
    },
    {
      "inputs": [
        {
          "internalType": "address",
          "name": "",
          "type": "address"
        }
      ],
      "name": "metadata",
      "outputs": [
        {
          "internalType": "enum PoolRegistry.RiskRating",
          "name": "riskRating",
          "type": "uint8"
        },
        {
          "internalType": "string",
          "name": "category",
          "type": "string"
        },
        {
          "internalType": "string",
          "name": "logoURL",
          "type": "string"
        },
        {
          "internalType": "string",
          "name": "description",
          "type": "string"
        }
      ],
      "stateMutability": "view",
      "type": "function"
    },
    {
      "inputs": [],
      "name": "owner",
      "outputs": [
        {
          "internalType": "address",
          "name": "",
          "type": "address"
        }
      ],
      "stateMutability": "view",
      "type": "function"
    },
    {
      "inputs": [],
      "name": "renounceOwnership",
      "outputs": [],
      "stateMutability": "nonpayable",
      "type": "function"
    },
    {
      "inputs": [
        {
          "internalType": "address",
          "name": "comptroller",
          "type": "address"
        },
        {
          "internalType": "string",
          "name": "name",
          "type": "string"
        }
      ],
      "name": "setPoolName",
      "outputs": [],
      "stateMutability": "nonpayable",
      "type": "function"
    },
    {
      "inputs": [
        {
          "internalType": "address",
          "name": "newOwner",
          "type": "address"
        }
      ],
      "name": "transferOwnership",
      "outputs": [],
      "stateMutability": "nonpayable",
      "type": "function"
    },
    {
      "inputs": [
        {
          "internalType": "address",
          "name": "comptroller",
          "type": "address"
        },
        {
          "components": [
            {
              "internalType": "enum PoolRegistry.RiskRating",
              "name": "riskRating",
              "type": "uint8"
            },
            {
              "internalType": "string",
              "name": "category",
              "type": "string"
            },
            {
              "internalType": "string",
              "name": "logoURL",
              "type": "string"
            },
            {
              "internalType": "string",
              "name": "description",
              "type": "string"
            }
          ],
          "internalType": "struct PoolRegistry.VenusPoolMetaData",
          "name": "_metadata",
          "type": "tuple"
        }
      ],
      "name": "updatePoolMetadata",
      "outputs": [],
      "stateMutability": "nonpayable",
      "type": "function"
    }
  ],
  "bytecode": "0x608060405234801561001057600080fd5b5061347c806100206000396000f3fe60806040523480156200001157600080fd5b5060043610620000fd5760003560e01c80638da5cb5b1162000097578063cc2a9a5b116200006e578063cc2a9a5b1462000243578063d88ff1f4146200025a578063f2fde38b1462000273578063f36dba38146200028a57600080fd5b80638da5cb5b14620001d6578063a3aefa2c14620001e8578063ad9c78c3146200020e57600080fd5b80632ba2157211620000d85780632ba215721462000166578063715018a6146200018f5780637aee632d14620001995780638af4e54914620001bf57600080fd5b80631b3a7f3314620001025780631cb6bb7e146200011b578063266e0a7f1462000132575b600080fd5b62000119620001133660046200205b565b620002b0565b005b620001196200012c366004620021c8565b62000719565b620001496200014336600462002254565b62000828565b6040516001600160a01b0390911681526020015b60405180910390f35b6200017d6200017736600462002292565b62000857565b6040516200015d949392919062002342565b6200011962000a34565b620001b0620001aa36600462002292565b62000a4c565b6040516200015d9190620023f4565b62000119620001d036600462002409565b62000b4d565b6033546001600160a01b031662000149565b620001ff620001f936600462002292565b62000e62565b6040516200015d919062002565565b620002256200021f3660046200257a565b620010ba565b604080519283526001600160a01b039091166020830152016200015d565b620001196200025436600462002602565b62001579565b62000264620016fb565b6040516200015d919062002683565b620001196200028436600462002292565b620018b3565b620002a16200029b36600462002292565b62001932565b6040516200015d9190620026e9565b620002ba620019aa565b600060018260a001516001811115620002d757620002d7620022b9565b03620003865760665460c083015160e084015161010085015161012086015160405163cccfa36160e01b815260048101949094526024840192909252604483015260648201523360848201526001600160a01b039091169063cccfa3619060a4016020604051808303816000875af115801562000358573d6000803e3d6000fd5b505050506040513d601f19601f820116820180604052508101906200037e919062002738565b90506200040b565b60675460c083015160e08401516040516302f3cddb60e51b8152600481019290925260248201526001600160a01b0390911690635e79bb60906044016020604051808303816000875af1158015620003e2573d6000803e3d6000fd5b505050506040513d601f19601f8201168201806040525081019062000408919062002738565b90505b600082600001519050600060405180610180016040528085602001516001600160a01b03168152602001836001600160a01b03168152602001846001600160a01b031681526020018560400151600a6200046691906200286b565b8152606080870151602080840191909152608080890151604080860191909152808a015160ff168486015233918501919091526101808901516001600160a01b0390811660a08601528151938401825260685481168452606954811692840192909252606a5482168382015260c08401929092526101a0880151811660e08401526101c0880151811661010090930192909252606554905163b0aa16e160e01b815292935060009291169063b0aa16e190620005279085906004016200287c565b6020604051808303816000875af115801562000547573d6000803e3d6000fd5b505050506040513d601f19601f820116820180604052508101906200056d919062002738565b6040516332ad3e1360e21b81526001600160a01b0380831660048301529192509084169063cab4f84c906024016020604051808303816000875af1158015620005ba573d6000803e3d6000fd5b505050506040513d601f19601f82011682018060405250810190620005e09190620029c5565b50610140850151610160860151604051635cc4fdeb60e01b81526001600160a01b0384811660048301526024820193909352604481019190915290841690635cc4fdeb906064016020604051808303816000875af115801562000647573d6000803e3d6000fd5b505050506040513d601f19601f820116820180604052508101906200066d9190620029c5565b5084516001600160a01b039081166000908152606f60209081526040808320828a0180518616855290835281842080546001600160a01b0319908116888816908117909255915186168552607084528285208b5181546001810183559187529585902001805490921694861694909417905551918252918516917f7772c85e68debdf74fad87834e2cc05fa763e74faf14de7096da305290651142910160405180910390a25050505050565b6000839050806001600160a01b031663f851a4406040518163ffffffff1660e01b8152600401602060405180830381865afa1580156200075d573d6000803e3d6000fd5b505050506040513d601f19601f8201168201806040525081019062000783919062002738565b6001600160a01b0316336001600160a01b03161480620007ad57506033546001600160a01b031633145b620007b757600080fd5b6001600160a01b0384166000908152606e60205260409020620007dc90848462001da1565b50836001600160a01b03167fcd55b948ea90079a8dd56be21c92c047513ba14784782e462d870b52dd29212184846040516200081a929190620029df565b60405180910390a250505050565b6001600160a01b038083166000908152606f602090815260408083208585168452909152902054165b92915050565b606b602052600090815260409020805460018201805460ff90921692916200087f9062002a0e565b80601f0160208091040260200160405190810160405280929190818152602001828054620008ad9062002a0e565b8015620008fe5780601f10620008d257610100808354040283529160200191620008fe565b820191906000526020600020905b815481529060010190602001808311620008e057829003601f168201915b505050505090806002018054620009159062002a0e565b80601f0160208091040260200160405190810160405280929190818152602001828054620009439062002a0e565b8015620009945780601f10620009685761010080835404028352916020019162000994565b820191906000526020600020905b8154815290600101906020018083116200097657829003601f168201915b505050505090806003018054620009ab9062002a0e565b80601f0160208091040260200160405190810160405280929190818152602001828054620009d99062002a0e565b801562000a2a5780601f10620009fe5761010080835404028352916020019162000a2a565b820191906000526020600020905b81548152906001019060200180831162000a0c57829003601f168201915b5050505050905084565b62000a3e620019aa565b62000a4a600062001a06565b565b62000a5662001e30565b6001600160a01b0382166000908152606e602052604090819020815160a0810190925280548290829062000a8a9062002a0e565b80601f016020809104026020016040519081016040528092919081815260200182805462000ab89062002a0e565b801562000b095780601f1062000add5761010080835404028352916020019162000b09565b820191906000526020600020905b81548152906001019060200180831162000aeb57829003601f168201915b505050918352505060018201546001600160a01b03908116602083015260028301541660408201526003820154606082015260049091015460809091015292915050565b62000b57620019aa565b6001600160a01b0382166000908152606b60205260408082208151608081019092528054829060ff16600481111562000b945762000b94620022b9565b600481111562000ba85762000ba8620022b9565b815260200160018201805462000bbe9062002a0e565b80601f016020809104026020016040519081016040528092919081815260200182805462000bec9062002a0e565b801562000c3d5780601f1062000c115761010080835404028352916020019162000c3d565b820191906000526020600020905b81548152906001019060200180831162000c1f57829003601f168201915b5050505050815260200160028201805462000c589062002a0e565b80601f016020809104026020016040519081016040528092919081815260200182805462000c869062002a0e565b801562000cd75780601f1062000cab5761010080835404028352916020019162000cd7565b820191906000526020600020905b81548152906001019060200180831162000cb957829003601f168201915b5050505050815260200160038201805462000cf29062002a0e565b80601f016020809104026020016040519081016040528092919081815260200182805462000d209062002a0e565b801562000d715780601f1062000d455761010080835404028352916020019162000d71565b820191906000526020600020905b81548152906001019060200180831162000d5357829003601f168201915b505050919092525050506001600160a01b0384166000908152606b60205260409020835181549293508492829060ff1916600183600481111562000db95762000db9620022b9565b0217905550602082810151805162000dd8926001850192019062001e71565b506040820151805162000df691600284019160209091019062001e71565b506060820151805162000e1491600384019160209091019062001e71565b50905050826001600160a01b03167f3ec6cccae70b3302d93643796f4c2a878d85f9b8fa5db38c8dc3d216d3870395828460405162000e5592919062002a44565b60405180910390a2505050565b62000e8f604080516080810190915280600081526020016060815260200160608152602001606081525090565b6001600160a01b0382166000908152606b6020526040908190208151608081019092528054829060ff16600481111562000ecd5762000ecd620022b9565b600481111562000ee15762000ee1620022b9565b815260200160018201805462000ef79062002a0e565b80601f016020809104026020016040519081016040528092919081815260200182805462000f259062002a0e565b801562000f765780601f1062000f4a5761010080835404028352916020019162000f76565b820191906000526020600020905b81548152906001019060200180831162000f5857829003601f168201915b5050505050815260200160028201805462000f919062002a0e565b80601f016020809104026020016040519081016040528092919081815260200182805462000fbf9062002a0e565b8015620010105780601f1062000fe45761010080835404028352916020019162001010565b820191906000526020600020905b81548152906001019060200180831162000ff257829003601f168201915b505050505081526020016003820180546200102b9062002a0e565b80601f0160208091040260200160405190810160405280929190818152602001828054620010599062002a0e565b8015620010aa5780601f106200107e57610100808354040283529160200191620010aa565b820191906000526020600020905b8154815290600101906020018083116200108c57829003601f168201915b5050505050815250509050919050565b600080620010c7620019aa565b6001600160a01b0387166200113d5760405162461bcd60e51b815260206004820152603160248201527f5265676973747279506f6f6c3a20496e76616c696420436f6d7074726f6c6c6560448201527039103132b0b1b7b71030b2323932b9b99760791b60648201526084015b60405180910390fd5b6001600160a01b038316620011a85760405162461bcd60e51b815260206004820152602a60248201527f5265676973747279506f6f6c3a20496e76616c69642050726963654f7261636c604482015269329030b2323932b9b99760b11b606482015260840162001134565b60408051600481526024810182526020810180516001600160e01b031663204a7f0760e21b17905290516000918991620011e29062001eee565b620011ef92919062002a6d565b604051809103906000f0801580156200120c573d6000803e3d6000fd5b5060405163091a474b60e11b81526004810189905290925082915081906001600160a01b038216906312348e96906024016020604051808303816000875af11580156200125d573d6000803e3d6000fd5b505050506040513d601f19601f82011682018060405250810190620012839190620029c5565b15620012ec5760405162461bcd60e51b815260206004820152603160248201527f5265676973747279506f6f6c3a204661696c656420746f2073657420636c6f7360448201527032903330b1ba37b91037b3102837b7b61760791b606482015260840162001134565b60405163a843108160e01b8152600481018890526001600160a01b0382169063a8431081906024016020604051808303816000875af115801562001334573d6000803e3d6000fd5b505050506040513d601f19601f820116820180604052508101906200135a9190620029c5565b15620013cf5760405162461bcd60e51b815260206004820152603a60248201527f5265676973747279506f6f6c3a204661696c656420746f20736574206c69717560448201527f69646174696f6e20696e63656e74697665206f6620506f6f6c2e000000000000606482015260840162001134565b604051631482db1d60e21b8152600481018790526001600160a01b0382169063520b6c7490602401600060405180830381600087803b1580156200141257600080fd5b505af115801562001427573d6000803e3d6000fd5b505060405163530e784f60e01b81526001600160a01b0388811660048301528416925063530e784f91506024016020604051808303816000875af115801562001474573d6000803e3d6000fd5b505050506040513d601f19601f820116820180604052508101906200149a9190620029c5565b15620015035760405162461bcd60e51b815260206004820152603160248201527f5265676973747279506f6f6c3a204661696c656420746f207365742070726963604482015270329037b930b1b6329037b3102837b7b61760791b606482015260840162001134565b604051634dd18bf560e01b81523360048201526001600160a01b03821690634dd18bf590602401600060405180830381600087803b1580156200154557600080fd5b505af11580156200155a573d6000803e3d6000fd5b505050506200156a8a8462001a58565b93505050965096945050505050565b600054610100900460ff16158080156200159a5750600054600160ff909116105b80620015b65750303b158015620015b6575060005460ff166001145b6200161b5760405162461bcd60e51b815260206004820152602e60248201527f496e697469616c697a61626c653a20636f6e747261637420697320616c72656160448201526d191e481a5b9a5d1a585b1a5e995960921b606482015260840162001134565b6000805460ff1916600117905580156200163f576000805461ff0019166101001790555b6200164962001d3e565b606580546001600160a01b03199081166001600160a01b038a811691909117909255606680548216898416179055606780548216888416179055606880548216878416179055606980548216868416179055606a80549091169184169190911790558015620016f2576000805461ff0019169055604051600181527f7f26b83ff96e1f2b6a682f133852f6798a09c465da95921460cefb38474024989060200160405180910390a15b50505050505050565b60606000606d5467ffffffffffffffff8111156200171d576200171d62001f13565b6040519080825280602002602001820160405280156200175a57816020015b6200174662001e30565b8152602001906001900390816200173c5790505b50905060015b606d548111620018ad576000818152606c60209081526040808320546001600160a01b0316808452606e90925291829020825160a08101909352805491929182908290620017ae9062002a0e565b80601f0160208091040260200160405190810160405280929190818152602001828054620017dc9062002a0e565b80156200182d5780601f1062001801576101008083540402835291602001916200182d565b820191906000526020600020905b8154815290600101906020018083116200180f57829003601f168201915b50505091835250506001828101546001600160a01b03908116602084015260028401541660408301526003830154606083015260049092015460809091015284906200187a908562002a9b565b815181106200188d576200188d62002ab5565b60200260200101819052505080620018a59062002acb565b905062001760565b50919050565b620018bd620019aa565b6001600160a01b038116620019245760405162461bcd60e51b815260206004820152602660248201527f4f776e61626c653a206e6577206f776e657220697320746865207a65726f206160448201526564647265737360d01b606482015260840162001134565b6200192f8162001a06565b50565b6001600160a01b0381166000908152607060209081526040918290208054835181840281018401909452808452606093928301828280156200199e57602002820191906000526020600020905b81546001600160a01b031681526001909101906020018083116200197f575b50505050509050919050565b6033546001600160a01b0316331462000a4a5760405162461bcd60e51b815260206004820181905260248201527f4f776e61626c653a2063616c6c6572206973206e6f7420746865206f776e6572604482015260640162001134565b603380546001600160a01b038381166001600160a01b0319831681179093556040519116919082907f8be0079c531659141344cd1fd0a4f28419497f9722a3daafe3b4186f6b6457e090600090a35050565b6001600160a01b0381166000908152606e6020526040808220815160a081019092528054839291908290829062001a8f9062002a0e565b80601f016020809104026020016040519081016040528092919081815260200182805462001abd9062002a0e565b801562001b0e5780601f1062001ae25761010080835404028352916020019162001b0e565b820191906000526020600020905b81548152906001019060200180831162001af057829003601f168201915b505050918352505060018201546001600160a01b039081166020808401919091526002840154821660408401526003840154606084015260049093015460809092019190915290820151919250161562001bc75760405162461bcd60e51b815260206004820152603360248201527f5265676973747279506f6f6c3a20506f6f6c20616c7265616479206578697374604482015272399034b7103a3432903234b932b1ba37b93c9760691b606482015260840162001134565b60648451111562001c145760405162461bcd60e51b81526020600482015260166024820152752737903837b7b6103730b6b29039bab8383634b2b21760511b604482015260640162001134565b606d805490600062001c268362002acb565b90915550506040805160a081018252858152336020808301919091526001600160a01b038616828401819052436060840152426080840152606d546000908152606c835284812080546001600160a01b03191683179055908152606e825292909220815180519293849362001c9f928492019062001e71565b5060208201516001820180546001600160a01b03199081166001600160a01b039384161790915560408085015160028501805490931690841617909155606084015160038401556080909301516004909201919091559051908516907f53ec2a1d9645c4631472dabcf6d255f5f2971baa64321235b1610d91c692928e9062001d2a908490620023f4565b60405180910390a25050606d549392505050565b600054610100900460ff1662001d685760405162461bcd60e51b8152600401620011349062002ae7565b62000a4a600054610100900460ff1662001d965760405162461bcd60e51b8152600401620011349062002ae7565b62000a4a3362001a06565b82805462001daf9062002a0e565b90600052602060002090601f01602090048101928262001dd3576000855562001e1e565b82601f1062001dee5782800160ff1982351617855562001e1e565b8280016001018555821562001e1e579182015b8281111562001e1e57823582559160200191906001019062001e01565b5062001e2c92915062001efc565b5090565b6040518060a001604052806060815260200160006001600160a01b0316815260200160006001600160a01b0316815260200160008152602001600081525090565b82805462001e7f9062002a0e565b90600052602060002090601f01602090048101928262001ea3576000855562001e1e565b82601f1062001ebe57805160ff191683800117855562001e1e565b8280016001018555821562001e1e579182015b8281111562001e1e57825182559160200191906001019062001ed1565b6109148062002b3383390190565b5b8082111562001e2c576000815560010162001efd565b634e487b7160e01b600052604160045260246000fd5b6040516101e0810167ffffffffffffffff8111828210171562001f505762001f5062001f13565b60405290565b6040516080810167ffffffffffffffff8111828210171562001f505762001f5062001f13565b6001600160a01b03811681146200192f57600080fd5b803562001f9f8162001f7c565b919050565b803560ff8116811462001f9f57600080fd5b600082601f83011262001fc857600080fd5b813567ffffffffffffffff8082111562001fe65762001fe662001f13565b604051601f8301601f19908116603f0116810190828211818310171562002011576200201162001f13565b816040528381528660208588010111156200202b57600080fd5b836020870160208301376000602085830101528094505050505092915050565b80356002811062001f9f57600080fd5b6000602082840312156200206e57600080fd5b813567ffffffffffffffff808211156200208757600080fd5b908301906101e082860312156200209d57600080fd5b620020a762001f29565b620020b28362001f92565b8152620020c26020840162001f92565b6020820152620020d56040840162001fa4565b6040820152606083013582811115620020ed57600080fd5b620020fb8782860162001fb6565b6060830152506080830135828111156200211457600080fd5b620021228782860162001fb6565b6080830152506200213660a084016200204b565b60a082015260c0838101359082015260e08084013590820152610100808401359082015261012080840135908201526101408084013590820152610160808401359082015261018091506200218d82840162001f92565b828201526101a09150620021a382840162001f92565b828201526101c09150620021b982840162001f92565b91810191909152949350505050565b600080600060408486031215620021de57600080fd5b8335620021eb8162001f7c565b9250602084013567ffffffffffffffff808211156200220957600080fd5b818601915086601f8301126200221e57600080fd5b8135818111156200222e57600080fd5b8760208285010111156200224157600080fd5b6020830194508093505050509250925092565b600080604083850312156200226857600080fd5b8235620022758162001f7c565b91506020830135620022878162001f7c565b809150509250929050565b600060208284031215620022a557600080fd5b8135620022b28162001f7c565b9392505050565b634e487b7160e01b600052602160045260246000fd5b60058110620022ee57634e487b7160e01b600052602160045260246000fd5b9052565b6000815180845260005b818110156200231a57602081850181015186830182015201620022fc565b818111156200232d576000602083870101525b50601f01601f19169290920160200192915050565b6200234e8186620022cf565b608060208201526000620023666080830186620022f2565b82810360408401526200237a8186620022f2565b90508281036060840152620023908185620022f2565b979650505050505050565b6000815160a08452620023b260a0850182620022f2565b9050602083015160018060a01b038082166020870152806040860151166040870152505060608301516060850152608083015160808501528091505092915050565b602081526000620022b260208301846200239b565b600080604083850312156200241d57600080fd5b82356200242a8162001f7c565b9150602083013567ffffffffffffffff808211156200244857600080fd5b90840190608082870312156200245d57600080fd5b6200246762001f56565b8235600581106200247757600080fd5b81526020830135828111156200248c57600080fd5b6200249a8882860162001fb6565b602083015250604083013582811115620024b357600080fd5b620024c18882860162001fb6565b604083015250606083013582811115620024da57600080fd5b620024e88882860162001fb6565b6060830152508093505050509250929050565b62002508828251620022cf565b6000602082015160806020850152620025256080850182620022f2565b905060408301518482036040860152620025408282620022f2565b915050606083015184820360608601526200255c8282620022f2565b95945050505050565b602081526000620022b26020830184620024fb565b60008060008060008060c087890312156200259457600080fd5b863567ffffffffffffffff811115620025ac57600080fd5b620025ba89828a0162001fb6565b9650506020870135620025cd8162001f7c565b945060408701359350606087013592506080870135915060a0870135620025f48162001f7c565b809150509295509295509295565b60008060008060008060c087890312156200261c57600080fd5b8635620026298162001f7c565b955060208701356200263b8162001f7c565b945060408701356200264d8162001f7c565b935060608701356200265f8162001f7c565b92506080870135620026718162001f7c565b915060a0870135620025f48162001f7c565b6000602080830181845280855180835260408601915060408160051b870101925083870160005b82811015620026dc57603f19888603018452620026c98583516200239b565b94509285019290850190600101620026aa565b5092979650505050505050565b6020808252825182820181905260009190848201906040850190845b818110156200272c5783516001600160a01b03168352928401929184019160010162002705565b50909695505050505050565b6000602082840312156200274b57600080fd5b8151620022b28162001f7c565b634e487b7160e01b600052601160045260246000fd5b600181815b80851115620027af57816000190482111562002793576200279362002758565b80851615620027a157918102915b93841c939080029062002773565b509250929050565b600082620027c85750600162000851565b81620027d75750600062000851565b8160018114620027f05760028114620027fb576200281b565b600191505062000851565b60ff8411156200280f576200280f62002758565b50506001821b62000851565b5060208310610133831016604e8410600b841016171562002840575081810a62000851565b6200284c83836200276e565b806000190482111562002863576200286362002758565b029392505050565b6000620022b260ff841683620027b7565b60208152620028976020820183516001600160a01b03169052565b60006020830151620028b460408401826001600160a01b03169052565b5060408301516001600160a01b0381166060840152506060830151608083015260808301516101c08060a0850152620028f26101e0850183620022f2565b915060a0850151601f198584030160c0860152620029118382620022f2565b92505060c08501516200292960e086018260ff169052565b5060e085015161010062002947818701836001600160a01b03169052565b860151905061012062002964868201836001600160a01b03169052565b86015190506101406200299b8682018380516001600160a01b03908116835260208083015182169084015260409182015116910152565b8601516001600160a01b039081166101a08701526101609096015190951693019290925250919050565b600060208284031215620029d857600080fd5b5051919050565b60208152816020820152818360408301376000818301604090810191909152601f909201601f19160101919050565b600181811c9082168062002a2357607f821691505b602082108103620018ad57634e487b7160e01b600052602260045260246000fd5b60408152600062002a596040830185620024fb565b82810360208401526200255c8185620024fb565b6001600160a01b038316815260406020820181905260009062002a9390830184620022f2565b949350505050565b60008282101562002ab05762002ab062002758565b500390565b634e487b7160e01b600052603260045260246000fd5b60006001820162002ae05762002ae062002758565b5060010190565b6020808252602b908201527f496e697469616c697a61626c653a20636f6e7472616374206973206e6f74206960408201526a6e697469616c697a696e6760a81b60608201526080019056fe608060405260405161091438038061091483398101604081905261002291610463565b61002e82826000610035565b505061058d565b61003e83610100565b6040516001600160a01b038416907f1cf3b03a6cf19fa2baba4df148e9dcabedea7f8a5c07840e207e5c089be95d3e90600090a260008251118061007f5750805b156100fb576100f9836001600160a01b0316635c60da1b6040518163ffffffff1660e01b8152600401602060405180830381865afa1580156100c5573d6000803e3d6000fd5b505050506040513d601f19601f820116820180604052508101906100e99190610523565b836102a360201b6100291760201c565b505b505050565b610113816102cf60201b6100551760201c565b6101725760405162461bcd60e51b815260206004820152602560248201527f455243313936373a206e657720626561636f6e206973206e6f74206120636f6e6044820152641d1c9858dd60da1b60648201526084015b60405180910390fd5b6101e6816001600160a01b0316635c60da1b6040518163ffffffff1660e01b8152600401602060405180830381865afa1580156101b3573d6000803e3d6000fd5b505050506040513d601f19601f820116820180604052508101906101d79190610523565b6102cf60201b6100551760201c565b61024b5760405162461bcd60e51b815260206004820152603060248201527f455243313936373a20626561636f6e20696d706c656d656e746174696f6e206960448201526f1cc81b9bdd08184818dbdb9d1c9858dd60821b6064820152608401610169565b806102827fa3f0ad74e5423aebfd80d3ef4346578335a9a72aeaee59ff6cb3582b35133d5060001b6102de60201b6100641760201c565b80546001600160a01b0319166001600160a01b039290921691909117905550565b60606102c883836040518060600160405280602781526020016108ed602791396102e1565b9392505050565b6001600160a01b03163b151590565b90565b6060600080856001600160a01b0316856040516102fe919061053e565b600060405180830381855af49150503d8060008114610339576040519150601f19603f3d011682016040523d82523d6000602084013e61033e565b606091505b5090925090506103508683838761035a565b9695505050505050565b606083156103c95782516000036103c2576001600160a01b0385163b6103c25760405162461bcd60e51b815260206004820152601d60248201527f416464726573733a2063616c6c20746f206e6f6e2d636f6e74726163740000006044820152606401610169565b50816103d3565b6103d383836103db565b949350505050565b8151156103eb5781518083602001fd5b8060405162461bcd60e51b8152600401610169919061055a565b80516001600160a01b038116811461041c57600080fd5b919050565b634e487b7160e01b600052604160045260246000fd5b60005b8381101561045257818101518382015260200161043a565b838111156100f95750506000910152565b6000806040838503121561047657600080fd5b61047f83610405565b60208401519092506001600160401b038082111561049c57600080fd5b818501915085601f8301126104b057600080fd5b8151818111156104c2576104c2610421565b604051601f8201601f19908116603f011681019083821181831017156104ea576104ea610421565b8160405282815288602084870101111561050357600080fd5b610514836020830160208801610437565b80955050505050509250929050565b60006020828403121561053557600080fd5b6102c882610405565b60008251610550818460208701610437565b9190910192915050565b6020815260008251806020840152610579816040850160208701610437565b601f01601f19169190910160400192915050565b6103518061059c6000396000f3fe60806040523661001357610011610017565b005b6100115b610027610022610067565b610100565b565b606061004e83836040518060600160405280602781526020016102f560279139610124565b9392505050565b6001600160a01b03163b151590565b90565b600061009a7fa3f0ad74e5423aebfd80d3ef4346578335a9a72aeaee59ff6cb3582b35133d50546001600160a01b031690565b6001600160a01b0316635c60da1b6040518163ffffffff1660e01b8152600401602060405180830381865afa1580156100d7573d6000803e3d6000fd5b505050506040513d601f19601f820116820180604052508101906100fb919061024c565b905090565b3660008037600080366000845af43d6000803e80801561011f573d6000f35b3d6000fd5b6060600080856001600160a01b03168560405161014191906102a5565b600060405180830381855af49150503d806000811461017c576040519150601f19603f3d011682016040523d82523d6000602084013e610181565b606091505b50915091506101928683838761019c565b9695505050505050565b60608315610210578251600003610209576001600160a01b0385163b6102095760405162461bcd60e51b815260206004820152601d60248201527f416464726573733a2063616c6c20746f206e6f6e2d636f6e747261637400000060448201526064015b60405180910390fd5b508161021a565b61021a8383610222565b949350505050565b8151156102325781518083602001fd5b8060405162461bcd60e51b815260040161020091906102c1565b60006020828403121561025e57600080fd5b81516001600160a01b038116811461004e57600080fd5b60005b83811015610290578181015183820152602001610278565b8381111561029f576000848401525b50505050565b600082516102b7818460208701610275565b9190910192915050565b60208152600082518060208401526102e0816040850160208701610275565b601f01601f1916919091016040019291505056fe416464726573733a206c6f772d6c6576656c2064656c65676174652063616c6c206661696c6564a2646970667358221220c6a100c25c8b261ed07a1543a57ea2cb22c7d69b616dd75407285a1e272d26df64736f6c634300080d0033416464726573733a206c6f772d6c6576656c2064656c65676174652063616c6c206661696c6564a2646970667358221220e23f2c9dac95505e8c23b304a43c4d26a4006b2aecc4901fc826affb79e80f8364736f6c634300080d0033",
  "linkReferences": {},
  "deployedLinkReferences": {}
}